:020000040800F2
:20800000E85600207D820008FDB00008BD820008FBB00008E58D0008CDB70008AAAAAAAA9E
:2080200000000000000000000000000011B30008F59000080000000079B1000811B40008E8
:20804000978200089782000897820008978200089782000897820008978200089782000818
:208060009782000897820008978200089782000897820008E98D000897820008F58D000832
:2080800097820008978200089782000897820008978200089782000897820008F990000868
:2080A0009782000885B4000897820008978200089782000897820008978200089782000898
:2080C000978200089782000897820008978200089782000811B600089782000849B6000804
:2080E000978200089782000897820008978200089782000897820008978200089782000878
:20810000978200089782000897820008978200089782000897820008978200089782000857
:20812000978200089782000897820008978200089782000897820008978200089782000837
:20814000978200089782000897820008978200089782000897820008018E000897820008A1
:20816000ADA20008A1A2000897820008978200089782000897820008978200089782000897
:208180009782000897820008EE11AA5500F002F800F064F80AA090E8000C82448344AAF113
:2081A0000107DA4501D100F059F8AFF2090EBAE80F0013F0010F18BFFB1A43F00103184787
:2081C000C46B0000E46B00000A444FF0000C10F8013B13F0070408BF10F8014B1D1108BF26
:2081E00010F8015B641E05D010F8016B641E01F8016BF9D113F0080F1EBF10F8014BAD1C8B
:208200000C1B09D16D1E58BF01F801CBFAD505E014F8016B01F8016B6D1EF9D59142D6D390
:20822000704700000023002400250026103A28BF78C1FBD8520728BF30C148BF0B6070475E
:20824000782900F03781732900F09783002070471FB506F08CFA1FBD10B510BD00F0CEFBE1
:208260001146FFF7F5FF04F0B3FE00F0ECFB03B4FFF7F2FF03BC00F0F3FB000009488047EE
:2082800009480047FEE7FEE7FEE7FEE7FEE7FEE7FEE7FEE7FEE7FEE704480549054A064B1A
:2082A0007047000029B400088D810008E8440020E8560020E8460020E84600207046694661
:2082C00003F074FDFFF7FEFF53EA020C00F069802DE9F04B4FF00006002B1FBFB3FA83F55F
:2082E00003FA05F424FA05F65E4012BF1643B2FA82F502FA05F4C5F120051EBF22FA05FCBA
:2083000044EA0C04203556EA044C4FEA144418BF641C4FF000084FF00009904271EB030C86
:2083200039D3002919BFB1FA81F701FA07F6B0FA80F700FA07F6C7F120071EBF20FA07FC24
:2083400046EA0C062037B6FBF4FCA7EB0507103F07F01F0BCBF120060CFA0BFB2CFA06F6C5
:2083600044BFB3460026202FA4BF5E464FF0000B5BEA060C08BF4FF0010B19EB0B09ABFB14
:20838000027C48EB0608C01B06FB02CC0BFB03CC71EB0C01C1E70B46024641464846BDE83B
:2083A000F08B13B54FF000004FF00001AFF30080BDE81C40704700000FB41CB5074B06AA8B
:2083C0007B4469460090059800F0A5FA0020694600F0B4FA1CBC5DF814FB0000790500004C
:2083E0000FB41CB50C0007AA009001D02044401E074B7B4469460190069800F08CFA002C78
:2084000003D06946002000F099FA1CBC5DF814FB5105000070B5044685690068C10601D543
:20842000302600E02026C00707D070BDD4E9012130469047206A401C20626D1EF6D570BDDE
:2084400070B5044685690078C00707D170BDD4E9012120209047206A401C20626D1EF6D5C7
:2084600070BD70B50C460546012A05D02878800600D5EA69002302E0012305E05B1C934265
:2084800002D2E05C0028F9D1A869E618C01AA861286A184428622846FFF7BCFF04E0D5E9AF
:2084A000012114F8010B9047B442F8D32846FFF7C7FF70BD70B504460D4621461068AFF350
:2084C00000802188090502D50F4A7A4402E00E4A7A440E32002104F1240305E000F00F0618
:2084E0000009965D5E54491C0028F7D120780023000704D5702D02D009B1022311322046E7
:20850000BDE8704000F0A9B99A6700002DE9F05F894604464FF0000ADFF874B1FB44C0F8F9
:2085200020A02046E1688847002874D0252806D0D4E901219047206A401C2062F1E7002652
:208540005F462046E16888472028054607DB312D05D2781910F8200C08B10643F1E7B007F8
:2085600001D526F00406C4F81CA00027C4F818A02A2D09D0284603F09DFA38B304EB870861
:20858000303DC8F8185019E059F8041B204604EB87029161E1688847012F054618D1E06948
:2085A000002820DA26F020061DE0D8F8180000EB800005EB40003038C8F818002046E168EE
:2085C0008847054603F076FA0028EED1012F0AD02E2D08D12046E16888477F1C0546022F64
:2085E00046F02006C4DBA069002803DA404246F00106A061F00701D026F010066C2D0BD04A
:20860000682D09D04C2D39D06A2D35D0742D35D07A2D33D016E038E0E1682F46204688477D
:20862000B842054609D16C2F26D04FF48060E168064320468847054604E06C2F1AD04FF4A9
:20864000807006430DB3A5F14100192802D8203546F400664A462946204626604E46FFF7C5
:20866000EFFD80B101280BD0F61D26F0070000F1080956E74020E4E78020D8E70020D6E703
:2086800006F104094DE7284652E7206ABDE8F09F70670000032A40F2308010F0030C00F058
:2086A000158011F8013BBCF1020F624498BF11F801CB00F8013B38BF11F8013BA2F1040247
:2086C00098BF00F801CB38BF00F8013B11F0030300F06780083AC0F0088051F8043B083A32
:2086E00051F804CBA0E80810F5E7121D5CBF51F8043B40F8043BAFF30080D20724BF11F8B6
:20870000013B11F801CB48BF11F8012B24BF00F8013B00F801CB48BF00F8012B7047431AF2
:2087200028BF9A427FF6B6AF032A1044114440F2268010F0030F1EBF11F8013D521E00F850
:20874000013D10F0030F7FF4F6AF11F0030300F02B81083AC0F00B8051F8043D083A51F87C
:2087600004CD40F8043D40F804CDFFF7F3BF121D5CBF51F8043D40F8043DAFF30080D207B6
:2087800024BF11F8013D11F801CD48BF11F8012C24BF00F8013D00F801CD48BF00F8012C90
:2087A000704710B5203AC0F00B80B1E81850203AA0E81850B1E81850A0E81850BFF4F5AF15
:2087C0005FEA027C24BFB1E81850A0E8185044BF18C918C0BDE810405FEA827C24BF51F8DA
:2087E000043B40F8043B08BF7047D20728BF31F8023B48BF11F8012B28BF20F8023B48BFA0
:2088000000F8012B70474FF0000200B5134694469646203922BFA0E80C50A0E80C50B1F1D4
:208820002001BFF4F7AF090728BFA0E80C5048BF0CC05DF804EB890028BF40F8042B08BF2E
:20884000704748BF20F8022B11F0804F18BF00F8012B70477047704770472DE9F0470D46CE
:2088600099469246044600F124080168880604D5E06921F01001216000E00120A84201DD55
:20888000471B00E00027A1697A1902EB0900081AA0612078C00602D42046FFF7BBFD00264B
:2088A00008E0D4E901211AF806009047206A401C761C20624E45F4DB2078C0060AD5204603
:2088C000FFF7A8FD06E0D4E9012130209047206A401C2062381EA7F10107F4DC07E0D4E93F
:2088E000012118F805009047206A401C2062281EA5F10105F3DC2046FFF7A2FD20780006B8
:2089000002D50220BDE8F0870120FBE701694A1C02610878704700B58FB0CDE901310021D8
:20892000059105497944CDE9031011466846FFF7EDFD0FB000BD0000E5FFFFFF0A6802F81E
:20894000010B0A607047D1E900239A4202D2531C0B601070704710B5436913B1AFF30080F5
:2089600001E0FFF77EFD012010BD127800F124010A7000224A700122EDE711684FF0FF32E1
:20898000E9E7431A28BF9A427FF60BAF104410F0030F11441EBF11F8013D521E00F8013D33
:2089A00010F0030F7FF4F6AF103AC0F00A8010B531E91850103A20E91850BFF4F9AFBDE807
:2089C0001040530724BF31E9081020E9081044BF51F8043D40F8043D12F0030F08BF70471F
:2089E000D20728BF31F8023D48BF11F8012C28BF20F8023D48BF00F8012C7047754600F046
:208A00002BF8AE4605006946534620F00700854618B020B5FFF740FCBDE820404FF00006F7
:208A20004FF000074FF000084FF0000B21F00701AC46ACE8C009ACE8C009ACE8C009ACE8A9
:208A4000C0098D46704710B50446AFF300802046BDE81040FFF70BBC00487047884400208F
:208A600001491820ABBEFEE726000200704700002DE9FF41002200F00700402343EAC00088
:208A800000924D1C02928DF800008DF80800144601926E46EFB2039210210C4800F0ECFB02
:208AA0000B483B46324602A9806904F041FD0122684604E0815C521C01EB0424D2B2AA4220
:208AC000F8D304B02046BDE8F081000000000240700200200148808D80B2704770020020F6
:208AE000FEB5344C00252B46A06201223249284602F044FF00F066F8052003F011FA0122D6
:208B000011460420FFF7B4FF00F00F00042803D0A16A012501B188470721012303220220EE
:208B2000616200F066F82549012303221846616200F05FF801231A464021052000F059F8BA
:208B4000012203210220FFF793FF0122E06103211046FFF78DFF01212062880302F026FB82
:208B60000621002002F0D6FB684600F02BFB4020012400908DF8064000268DF804600C200C
:208B80008DF80500684600F0E5FA17208DF8080002208DF809008DF80A608DF80B4002A8F1
:208BA00002F0AEFA04F020F91021054800F064FB2846FEBD7002002040420F0002201800BB
:208BC000000002401CB501208DF80000FF208DF801008DF804008DF802008DF805008DF818
:208BE00003008DF8060007226946012002F076FB1CBD3FB583B00546002000900190680790
:208C0000800E04AC11468DF800006D4604E014F8010B6854491EC9B20029F8D1521CD2B209
:208C20002946184602F05AFB07B030BD01498863704700007002002070B504F0EBF81021D1
:208C4000254800F019FB254B186840F001001860224A7832106840F0010010601F4810382C
:208C600001688906FCD51D480838016841F020010160001D016841F400610160186820F05D
:208C800001001860106820F001001060144DA5F141046878A978000440EA0120E97808432A
:208CA000606104F005FB2979C1F30011884205D16069000A20610020607008E06078401C98
:208CC000C0B26070032802D3A06A00B1804704F08BF8208A80B270BD000002401064024058
:208CE000B10200200029816802D041F0010101E021F0010181607047084B10B5D3F80423F4
:208D000007490A40D0E900142143D0E90240044321431143C3F8041310BD0000002001408E
:208D2000E030FCFF30B542680F4B0C791A400B6842EA04221343436082680C4B4D791A4041
:208D4000D1E9034323438C6844EA4504234313438360C26A097D22F47002491EC9B242EA5B
:208D60000151C16230BD0000FFFEFFFCFDF7FFC070B5072609290AD9C568A1F10A0404EBC3
:208D80004404A640B543A3401D43C56007E0056901EB4104A640B543A3401D4305611F23F6
:208DA000072A09D2446B521E02EB820293409C4391400C43446370BD0D2A09D2046BD21FFF
:208DC00002EB820293409C4391400C43046370BDC46A0D3A02EB820293409C4391400C4304
:208DE000C46270BDFEE700000148806B00F06EBACC4200200148406B00F068BACC4200208D
:208E000070B50B4C4FF020552946204600F004F900280CD00748406880472946204600F0D9
:208E200049F82046BDE87040002100F059B870BDB8640240FC01002001681823CAB2103A02
:208E4000B2FBF3F2054B6FF30901032A9B5CC36500D9091D81650846704700003EEC00085C
:208E600010B5014600208B698A6A4FF0C07453B1B3F5005F15D072B1012A0CD0022A0AD04B
:208E8000032A09D104E01AB1012A06D0022A03D1C96AC90100D5012010BDC96AA142FAD07B
:208EA00010BD002AF7D0012AF2D0022AF3D0032AF3D010BD074A904201D2074801E00548E8
:208EC0001038064A8B0001EA020101D5C16070478160704710640240006002407D0F7D0FCB
:208EE0000029016802D041F0010101E021F00101016070472DE9F043016821F001010160A9
:208F00000021016041608160C1600161212141613C493C4A3D251039904202D18D60BDE8F9
:208F2000F083384A4FF474661832904201D18E60F5E7344A4FF474173032904201D18F6026
:208F4000EDE7304A4FF0746C4832904202D1C1F808C0E4E72B4B2C4A6033984201D1CA60E4
:208F6000DDE7284C294B7834A04201D1CB60D6E7DFF89080264C08F19008404501D1CC6090
:208F8000CDE7DFF880804FF03D5908F1A808404502D1C1F80C90C2E71E49DFF878800839FB
:208FA000404501D10D60BAE71A4D1835A84201D10E60B4E7174D3035A84201D10F60AEE74A
:208FC000144D4835A84202D1C1F800C0A7E7114D10496035091FA84201D10A609FE70D4A78
:208FE0007832904201D10B6099E70A4A9032904201D10C6093E7074AA83290428FD1C1F882
:2090000000908CE7106002403D000020400F002000003D20106402400246094B00209A4224
:2090200001D2084A01E0064A103A8B0001D5526800E01268044B1A400A4200D0012070477E
:2090400010640240006002407D0F7D0F0B0607D5436912B143F0800301E023F08003436173
:20906000802908D0002A026801F01E0101D00A4300E08A430260704730B50368124ACC6807
:2090800013400A682243D1E905452C432243CC6922430C6A22434C6A22438C6A22434C6B2C
:2090A00022438C6B22431A430260426922F00703D1E90B2422431A4342610A6942604A6854
:2090C00082608968C16030BD3F801CF030B50468256825F480252560046863608368402B3E
:2090E000036803D099600068C26030BD9A600068C16030BD7047000010B5402000F020F86E
:20910000084C58B1402000F015F8FFF795FDE062A06B00B18047206B401C2063606B401CB7
:20912000606310BD700200200149086070470000143C01400149086070470000143C014019
:20914000034A0146002012680A4200D001207047143C014030B51A4A8379016853B313682D
:209160008B431360111D0B680468A3430B60017911440B68046823430B60114B08331968B9
:209180000468A14319601C1D21680568A94321604179102905D011440A68006802430A60C4
:2091A00030BD1968026811431960216800680143216030BD0079104402688A43026030BD14
:2091C000003C01400021016001710C22427181717047F0B5002201274FF0030C0B6807FAE3
:2091E00002F52B40AB422CD1066853000CFA03F4A64306600E79D0F800E09E4046EA0E06C5
:2092000006600E79012E01D0022E12D18668A64386604E79D0F808E09E4046EA0E06866012
:209220004668AE43466045688E799640B6B235434560C568A543C560CC799C40C3681C43F5
:20924000C460521C102AC9D3F0BD4B07DB0E9A40C90810B500EB8100016A0F249C40A14384
:209260000162016A1143016210BD0246002012690A4200D00120704709048161704781613D
:2092800070474FF6FF7101600021017141718171C171704742694A404261704790F8351085
:2092A000022903D08021416501207047052180F835100068016821F0010101600020704792
:2092C000406D704790F83500704700002DE9F84304464FF00009CDF8009063484FF4165129
:2092E000A56D0068B0FBF1F72E6894F85C20082101FA02F030420FD02068026852070BD531
:20930000026822F00402026094F85C008140A960606D40F00100606594F85C104FF00108B4
:2093200008FA01F0304208D021684969090604D5A860606D40F00200606594F85C100420E5
:209340008840304208D021680968890704D5A860606D40F00400606594F85C1010208840DA
:20936000304218D021680968090714D5A86020680168490304D50068000308D5A16C07E046
:209380000168C90503D4016821F008010160216C09B12046884794F85C10202088403042ED
:2093A00031D021680968C9062DD5A86094F8350005282068016806D0490347D50068000351
:2093C0001DD4616C1CE021F0160101602068416921F080014161206C08B9A06C20B1206832
:2093E000016821F00801016094F85C103F208840A86084F8358084F83490216D1FE0E16B18
:2094000009B120468847606D00282BD0606DC00714D0052084F835002068016821F001011B
:2094200001600098401C0090B84203D820680068C007F6D184F8358084F83490E16C00290D
:2094400010D001B02046BDE8F04308470168C905D5D4016821F01001016084F8358084F875
:209460003490CCE7BDE8F883F00200202DE9F041044600F089F905465CB1022084F8350015
:20948000002684F834602068016821F0010101600DE00120BDE8F08100F076F9401B052826
:2094A00005D920206065032084F83500F2E720680068C007F0D121680A6820480240D4E942
:2094C00001031843D4E903352B43184363691843A3691843E3691843236A18431043626A33
:2094E000042A03D1D4E90B231A431043086020684069656A20F0070128460D43012704283D
:209500000CD1A06A0543E06A40B12046FFF7A8FC20B14020606584F83570BAE720684561FB
:209520002046FFF789FC94F85C203F2191408160666584F835700020ACE700003F8010F0D2
:209540002DE9F0410446866D90F83400002501280DD0012084F8340094F835700020012F4E
:2095600007D084F8340002252846BDE8F0810220FBE7022784F8357060652046FFF7A6FDA7
:2095800094F85C103F208840B0602068016841F016010160206C20B12068016841F008017A
:2095A00001602068016841F001010160DCE700002DE9F84FDFF89C910022A9F1040B0327AC
:2095C0004FF00F0C09F1040AABF1040E01250B6895402B40AB426ED10C7904F00304012CC9
:2095E00001D0022C15D18668540007FA04F826EA0806D1F80C8008FA04F848EA0608C0F8DE
:2096000008804468AC430D79C5F300159540254345600C79E443A40708D0C568540007FA41
:2096200004F6B5438E68A6402E43C6600C7904F00304022C11D1D40800EB8406356A5407EA
:20964000E40E0CFA04F825EA0805D1F8108008FA04F848EA0508C6F820800568540007FA44
:2096600004F6B5430E7906F00306A6402E4306604C6814F4403F66D0374C256845F4804536
:209680002560246822F0030504F480440094334C05EB0408D8F808589407260F0CFA06F4D4
:2096A000A5432F4CA04201D1002424E02D4CA04202D101241FE046E02B4CA04201D10224A2
:2096C00019E02A4CA04201D1032414E0284CA04201D104240FE0274CA04201D105240AE0D3
:2096E000254CA04201D1062405E0244CA04201D1072400E00824B4402C43C8F80848D9F897
:2097000000404D464E689C43F60200D51C432C60DAF8004055464E689C43B60200D51C43FB
:209720002C60DBF800405D464E689C43B60300D51C432C60DEF8004075464E689C43F6037A
:2097400000D51C432C60521C102AFFF43FAFBDE8F88F0000083C01404438024000300140E0
:20976000000002400004024000080240000C0240001002400014024000180240001C024069
:2097800010B503F031FC10BD10B503F02DFC10BD704770472DE9F041016804468A8A8E88D7
:2097A00090F83E000025D743FA0506D4F243D20503D44FF6FF6201258A82B90508D4F14342
:2097C000C90505D422684FF6FF5145F002059182790525D4F143C90522D4638D94F83D103C
:2097E000226B202808D13BB9212910D029290ED0282901D1212A0AD022684FF6FF31918213
:2098000045F00405102806D0402804D008E0204601F0A8FA04E02068018841F400710180C3
:20982000380508D4F043C00505D421684FF2FF7045F008058882002D07D0206C284320643A
:209840002046BDE8F04100F03BBEBDE8F0812DE9F047026800219388C66A90F83E4090F81C
:209860003D50102C12D0402C10D0046C002C7DD0948AE443A6077AD4DE43B60577D4036C32
:2098800003B1118BBDE8F04701F048BA178B918A4FF42A0CC9435FEAC1784FF02A4904D05F
:2098A00066452AD04E4528D010E0DE43B6050DD4C16A614501D1012103E0C16A494501D198
:2098C0000821C162BDE8F04701F0C0B80E0716D4DE43B60513D4416CC9B21182416B09B114
:2098E000C96B29B9816B002907D0C96B002904D00068818841F400618180BDE8F0878E077C
:2099000006D4DE43B60503D4BDE8F04701F012B8FE43928876074FEA02521DD4002AECDBDC
:209920000A0608D4DA43520505D4490705D5BDE8F04700F0A5BF4907DFD4D9438905DCD437
:20994000212D05D0402CD8D1BDE8F04701F0C3B8BDE8F04700F054BF002ACEDB4A060BD4A6
:20996000DA43520508D4490708D501E00DE00EE0BDE8F04700F0D0BE4907BED4D9438905C8
:20998000BBD4BDE8F04700F05EBE118B70E7E10606D4D943890503D4BDE8F04701F024BA70
:2099A0002826212D27D0292D25D0610655D4D943490552D4610752D590F83D10438D002B4A
:2099C0009BD0128A436A1A70426A521C4262428D521E4285428D002A8FD12A298DD1016812
:2099E0008A8822F480628A802221016380F83D6000F026FC81E7210623D4D943490520D4A1
:209A0000610720D590F83D10438D002BF2D0436A1B781382426A521C4262428D521E4285BE
:209A2000428D002AE6D12929E4D101688A8822F480628A802121016380F83D6000F001FC4A
:209A40005BE76107D6D4D9438905D3D4418D0029D0D0416A097811820AE06107CAD4D943FF
:209A60008905C7D4418D0029C4D0118A426A1170416A491C4162418D491E41853DE77047E1
:209A800090F83D007047000070B5040004D094F83D00002510B106E0012070BD84F83C5062
:209AA000204600F02DFB242084F83D002068018821F0010101802068018841F4004101807E
:209AC0002068018821F40041018047484849474AB0FBF1F021688B8823F03F0303438B801F
:209AE0006168914206D94FF4967148434FF47A71B0FBF1F02168401C0B8C23F03F03184330
:209B0000088439496068491E90420FD84000B1FBF0F2521CC2F30B02042A01D2042020E02C
:209B2000B1FBF0F0401CC0F30B001AE0A268E2B300EBC00303EB0013B1FBF3F35B1C43F4F7
:209B400080431B0545D08AB300EBC00202EB0010B1FBF0F0401CC0F30B0040F4804040F458
:209B6000004021688A8B02F4405210438883A18B208C01432068028822F0C002114301804A
:209B8000218AA08901432068028902F4F84211430181A18A208B01432068828922F0FF02D4
:209BA000114381812068018801E00CE013E041F0010101802564202084F83D00256384F844
:209BC0003E50002070BD00EB4003B1FBF3F35B1CB7E70120C5E700EB4000B1FBF0F0401CF5
:209BE000C0F30B00BBE7000080DE8002A086010040420F002DE9FF4F81B01F469346044650
:209C0000FFF7BEFD054694F83D00002620287DD11923012250492046009501F093F900282B
:209C200074D194F83C00012870D0012084F83C0020680188C90703D1018841F001010180E3
:209C40002068018821F400610180242084F83D004FF0000AC4F840A04048E0624FF02009E8
:209C60002068018841F4807101803B4600224FF001112046009501F065F950B120680088DD
:209C8000C00502D54FF400702064032005B0BDE8F08F0298216800F0FE000882FFF770FDF7
:209CA00005462068818A808AC1F34001C0F380204FF0A0080EE0FFF763FD401BB84200D81C
:209CC0000FB984F83D802068818A808AC1F34001C0F3802094F83D20A02A02D009B900282F
:209CE000E9D084F83D902068818AC943890717D4018841F40071018020685646818A008BDE
:209D00001923012214492046009500E022E001F019F9A8B984F83D9084F83C600020B5E729
:209D2000018841F40071018021684FF6FF3088821923012208492046009501F003F908B11B
:209D40000120A3E7761C5E458AD384F83D9084F83CA0F5E7022099E7020010000000FFFF97
:209D60007047704770477047704700002DE9FF4F83B09A46DDE9119793460446DDF84080B3
:209D8000FFF7FEFC054694F83D00202870D11923012271492046009501F0D4F80028F5D177
:209DA00094F83C00012863D0012084F83C0020680188C90703D1018841F00101018020682C
:209DC000018821F400610180222084F83D00402084F83E0000262664C4F82480A4F82A9088
:209DE000608D20855D48E062CDE9007553465A462046049900F0C0FE00287CD1208DD0B132
:209E0000012821D00228206824D0818A008B0090208D032869D801282BD0514902283B46DA
:209E20004FF00002009559D08846204601F08AF8002860D13CE02068818A018B00910188CE
:209E400041F40071018077E02068018821F480610180F0E7018821F4806101802068018814
:209E600041F4006101802068818A008B009063E06FE02A463946204601F0E4F898BB20688E
:209E8000008A616A08704EE02068018841F4007101802068008A616A0870606A401C606252
:209EA000218D491E2185618D491E6185216838E02068018821F4806101802068008A616AA6
:209EC0000870606A401C6062208D401E2085608D401E60853B46002241460095204601F02C
:209EE00031F800B9D0E706E0FFE72A463946204601F0A8F818B1012007B0BDE8F08F2068CA
:209F0000008A616A0870606A401C6062218D491E2185618D491E618521688A8AD24352078B
:209F20000AD4098A0170606A401C6062208D401E2085608D401E6085208D00287FF468AF18
:209F4000202084F83D0084F83E6084F83C600020D2E70220D0E70000020010000000FFFF14
:209F6000040001002DE9FC5F0025984691468A460446DDF830B00095FFF702FC074694F860
:209F80003D00202871D15A4846F2A81120260068B0FBF1F000EBC00101EB0010009000985D
:209FA000401E009010D02068008BC0438007F6D594F83C00012858D0012084F83C002068F1
:209FC0000188C9070AD00DE044F8305F6673A573206940F020002061257343E0018841F0D6
:209FE000010101802068018821F400610180212084F83D00402084F83E002564C4F824B0A9
:20A000000D986085608D20853A48E062C4F844A0C4F84890C4F84C802565208D00285BD01A
:20A02000606B18B33449C163616B3448C864606B0564606B4564606B8564606B056522685A
:20A04000238D1032616A606BFFF77AFAB8B184F83D6084F83E5054F8400F40F0100044F86B
:20A06000040925700120BDE8FC9F3EE084F83D6084F83E5054F8400F40F08000EFE7232038
:20A08000CDE9000743464A465146204600F0F2FD88B1606BFFF702F9606BC5632068018815
:20A0A00021F480610180258565852068018821F001010180D6E72068818A018B009184F807
:20A0C0003C50818841F4807181802068818841F4006181800020C6E784F83D6084F83E50AC
:20A0E00054F8400F40F04000B9E70220BBE70000F00200200000FFFFB5A3000871A3000865
:20A100002DE9F04F0646494887B00025016841F004010160016801F004010591016841F022
:20A1200001010160016801F0010105913F4910310A6842F400020A60096801F400010591F0
:20A14000016841F4001101600068032700F4001005904FF480700090122001900120CDE967
:20A1600002070424694604943148FFF721FAE0010090694604942F48FFF71AFA2F4C2E48B3
:20A180004FF0C068E4E8020840204FF48069A4E821024FF4000A44F8145904F12401A56131
:20A1A000E5614FF4001B256281E8A00C2348FFF75DF97463A663214C1F4860343038206078
:20A1C000C4E90185C4E9035965614FF40030A561C4E9075004F12401204681E8A00CFFF775
:20A1E00045F9B463002202210F20A66300F038F80F2000F027F8002202210D2000F030F8A5
:20A200000D2000F01FF800220221492000F028F8492000F017F801220221482000F020F82E
:20A22000482000F00FF807B0BDE8F08F303802400000024000080240706002404C410020EF
:20A2400070477047002809DB00F01F02012191404009800000F1E020C0F800117047000046
:20A26000F0B40E4B1B68C3F30223C3F10704042C00D904241D1D072D01D2002300E0DB1E56
:20A28000012606FA04F56D1E0D409D409E40761E164045EA0601F0BC01F0FCBB0CED00E0BE
:20A2A0000148FFF777BA0000CC4200200148FFF7CEBA0000CC42002038B5806B002290F889
:20A2C0003D302A490C6846F2A811B4FBF1F1C1EBC10101EB8101009139B1491E00910168F0
:20A2E0000988890505D50099F6E7016C41F020010164416B01B1CA63816B01B1CA6301680C
:20A300000C8824F480640C804285416B01B10A65816B01B10A6501680C8824F001040C80DE
:20A3200090F83D402021602C0AD0282434EA03030ED080F83D1080F83E20FFF7A0FB38BD02
:20A3400080F83D1080F83E200264FFF721FA38BD01680B8843F001030B8001680B8843F405
:20A3600080630B80026380F83D40E6E7F002002070B5846B01460025606B00B1C563A06B07
:20A3800000B1C5630846FEF79BFF022811D02068018821F4806101806585202084F83D0091
:20A3A00084F83E50206C40F0100020642046FFF766FB70BD2DE9F041846B94F83D1094F8BE
:20A3C0003E50E06A2268938823F440739380626B002302B1D363A26B02B1D363212232EAF5
:20A3E00001074FF022060CD036EA010701D1202D07D094F83E10002921D0618D012920D0F8
:20A4000024E02068858825F40065858063852820292902D02A2907D00CE0226384F83D0078
:20A420002046FFF70EFF05E0266384F83D002046FFF706FF2068818841F440718180BDE80E
:20A44000F08121680A8822F480620A8021688A8822F440728A8010F5803F06D0082804D0E3
:20A46000B0F12A4F01D0202804D12068018841F4007101802068818821F48051818020689C
:20A48000818821F4006181806385206C18B12046FFF7F5FAD3E7202084F83D0094F83E0037
:20A4A00084F83E30402805D0122020632046FFF758FCC4E723632046FFF755FCBFE700008C
:20A4C00070B5044690F83D0094F83E10102901D0402906D1222804D121680A8822F4006272
:20A4E0000A80282131EA00024FF000054FF0200626D021688988090505D4602803D084F875
:20A500003D6084F83E50256320688188090537D5818821F400618180606B90F835203C49B4
:20A52000012A11D00165606BFEF7B8FE38B32068018821F00101018084F83D60606B1CE0C3
:20A54000256384F83D10DFE7A06B0165A06BFEF7A5FEA0B12068818AC943490605D4008A2E
:20A56000616A0870606A401C60622068018821F00101018084F83D60A06B016D884710E0BA
:20A5800094F83D10602910D0818AC943490605D4008A616A0870606A401C60622046FFF729
:20A5A0006EFA206CC1071CD115E084F83D602564818AC943490605D4008A616A0870606A85
:20A5C000401C60622068018821F0010101802046FFF7DEF8E5E7810703D4410701D4000737
:20A5E00004D52068818821F4E061818094F83D00216C49070BD5282809D10648E0622563D2
:20A6000084F83D6084F83E502046FFF7A9FB70BDB9A200080000FFFF01688A8AD2435205A0
:20A620000FD44FF6FF328A82002140F8301F202242738173026942F0040202610173012087
:20A6400070470020704710B5C26A438D0168042B06D0438D032B08D0438D022B1DD012E08B
:20A660008A8822F480628A800CE08B8823F480638B80042A06D0022A04D001680A8822F4AD
:20A6800080620A800168098A426A1170416A491C4162418D491E418510BD012A30D0102A45
:20A6A0002ED0042A30D0022A2ED00A8842F400720A800168098A426A1170416A491C4162A4
:20A6C000428D521E42850268128A0A70416A491C4162418D491E418501688A8822F4407203
:20A6E0008A80202180F83D1090F83E200021402A80F83E100CD012210163FFF732FB10BDB0
:20A700000A8822F48062D3E70A8842F48062CFE70163FFF728FB10BD38B590F83D1022293E
:20A720000FD1418D03290DD90168098A426A1170416A491C4162418D491E4185418D032988
:20A7400006D038BDC26A022A02D0012906D029B10068818821F48061818038BD274946F225
:20A76000A812002309682024B1FBF2F101EB810100910168009A521E009222D00A88920599
:20A78000F8D40A8822F480620A8001688A8822F4E0628A800168098A426A1170416A491CC3
:20A7A0004162418D491E418580F83D4090F83E1080F83E3040291DD012210163FFF7D1FA9C
:20A7C00038BD026C42F0200202648A8822F4E0628A800168098A426A1170416A491C41620C
:20A7E000418D491E418580F83D4080F83E30FFF746F938BD0363FFF7B6FA38BDF002002046
:20A8000010B5C16A90F83D20212A0BD1428D52B1416A026809781182416A491C4162418DC0
:20A82000491E418510BD20230022082912D0202910D011F5803F0DD001688C8824F4E06402
:20A840008C801121016380F83E2080F83D30FFF789FA10BD01688C8824F4E0648C80016807
:20A860000C8844F400740C80026380F83D3090F83E1080F83E204029E9D1FFF775FA10BDC1
:20A8800010B590F83D2090F83E30C16A048DB4B1212A03D0402B11D1222A0FD1418DE9B3F6
:20A8A00090F83E10402940D0416A026809781182416A491C4162418D491E418510BD212A5A
:20A8C000E8D120230022082912D0202910D011F5803F0DD001688C8824F4E0648C80112165
:20A8E000016380F83E2080F83D30FFF73BFA10BD01688C8824F4E0648C8001680C8844F427
:20A9000000740C80026380F83D3090F83E1080F83E204029E9D1FFF727FA10BDFFE70068EC
:20A92000818821F480618180F7E7BDE8104000F0D2B8000078B590F83E40C26A056B90F873
:20A940003D6000230168222E7AD1066D0EB9402C76D0046D1CB90469B4F5404F09D0448DB2
:20A9600004B3468D384C012E0ED0458D022D3AD05DE08A8A0A8B00920A8842F480720A80F5
:20A98000016D491C016578BDA24213D10A8822F480620A8001688A88120503D50A8822F45B
:20A9A000806216E08A8A0A8B00920A8842F400720A8039E0082A10D0202A0ED0122D0AD054
:20A9C000042A03D0022A01D0102AE7D10A8842F480620A8024E0012AE0D00A8822F48062EA
:20A9E0000A800168DEE7042A21D0022A1FD0102A1DD00D8825F480650D8001680D8845F4E7
:20AA000000650D8001688D882D0509D5A24212D0012A10D0082A0ED0102A0CD0202A0AD09B
:20AA200001688A8A098B0091036578BD08E00D8845F48065E5E78A8842F480528A80EFE776
:20AA4000888A088B0090F0E70000FFFF90F83E1040290FD00169B1F5804F18D0016DA1B345
:20AA6000016D01290FD1416CF12201F4407142EAD11106E0016D0029416C05D0C9B241F03F
:20AA8000010100680182704701F0FE01F9E790F83D102129416C09D0C9B241F00101026885
:20AAA0001182416B29B1C96B49B902E001F0FE01F5E7816B0029E6D0C96B0029E3D0006856
:20AAC000818841F4006181807047FFE7416CF02201F44071CBE710B590F83D10026D22B344
:20AAE000026D012A2FD0026D022A1DD122292FD0428D0AB1212933D0428D002A14D12129EB
:20AB000012D101688A8822F4E0628A8001680A8842F400720A8000210163202280F83D20AC
:20AB200080F83E10FFF720F910BDC16C0129816C02D0C1F3072108E00268C9B21182016DB3
:20AB4000891C016510BD816CC9B20268118204E001680A8842F480720A80016D491CF0E77D
:20AB6000416A026809781182416A491C4162418D491E418510BD00002DE9F84F0446006822
:20AB800089460B9E01889846174641F4806101802068018841F48071018000964FF0011B39
:20ABA0000022594620460A9B00F0CCF94FF4007A40B120680088C00501D5C4F840A00320FC
:20ABC000BDE8F88F216809F0FE0008823346284920460A9A00F0EAF9F0BB2068818A008BAF
:20ABE0000090324620460A9900F061FA40B1206C04283AD12068018841F40071018034E0F9
:20AC0000FDB2B8F1010F09D02168380A0882324620460A9900F04BFA0028E8D120680582F8
:20AC2000324620460A9900F042FA0028DFD12068018841F48071018000960022594620461A
:20AC40000A9B00F07FF90028B3D1216809F0FF0040F00100088200E007E03346044920460C
:20AC60000A9A00F0A3F90028AAD00120A8E70000020001002DE9F843044600680D46DDE933
:20AC8000089701889846164641F4807101804B4600224FF001112046009700F053F948B175
:20ACA00020680088C00502D54FF4007020640320BDE8F883216805F0FE0008823B464A4657
:20ACC0001549204600F072F988B92068818A008B00903A464946204600F0E9F948B1206C9A
:20ACE000042804D12068018841F4007101800120DEE7F5B2B8F1010F09D02168300A0882AF
:20AD00003A464946204600F0D2F90028E7D1206805820020CCE700000200010038B50D46FE
:20AD200090F83D2000212824944302680B4605D0918A118B009180F83C3038BD948824F405
:20AD400080649480EA43540700D50121120601D5828900E0028B80F83C3092B2FEF719FDE3
:20AD600038BD00002DE9F04190F83D30C26A002520261C4F01684FF6FF34082A01D0202A72
:20AD800001D1282B04D0212B16D08C82BDE8F081C7628A8822F4E0628A8001688C820168E7
:20ADA0000A8822F480620A80056380F83D6080F83E50FEF7D5FFE9E7C7622122026380F81A
:20ADC0003D6080F83E508A8822F4E0628A8001688C8201680A8822F480620A80FFF731FA47
:20ADE000D4E700000000FFFFF8B590F83D5004460068818821F4E061818020680026818A0D
:20AE00000091018841F0010101802068018821F48061018020688188090520D5474F222D63
:20AE200048D02A2D46D0616B096849686185618D19B1216C41F004012164818821F400613A
:20AE40008180606BFEF73EFA012808D0606B0765606BFEF723FA10B1606B016D8847608D2E
:20AE600008B32068818AC943490708D4008A616A0870606A401C6062608D401E60852068DF
:20AE8000818AC943490608D4008A616A0870606A401C6062608D401E6085608D18B1206C49
:20AEA00040F004002064206C00B32046BDE8F840FFF706BBA16B096849686185618D19B1D5
:20AEC000216C41F004012164818821F400618180A06BFEF7F7F90128C1D0A06B0765A06B7E
:20AEE000FEF7DCF90028BAD0A06BB6E72A2D06D12663282084F83D002046FFF7A1F994F8F4
:20AF00003D10202028290DD0216B222901D0222D07D1266384F83D0084F83E602046FFF7EF
:20AF20008FF9F8BD0649E162266384F83D0084F83E602046FEF714FFF8BD0000B9A2000860
:20AF40000000FFFF2DE9F0471D4690460E460446C1F30747DDF8209008E0681C06D0FEF711
:20AF60000FFCA0EB0900A8420FD875B12068012F18D0008B26EA00000004000C14D00020EC
:20AF80004045EAD00020BDE8F087002044F8300F20216173A073216941F020012161207382
:20AFA0000120F0E7808AE5E70120E9E72DE9F047984615460E4604464FF000094FF0200AFD
:20AFC000C1F3074723E02068808AC043400515D42068018841F40071018021684FF6FF3074
:20AFE0008882C4F8309084F83DA084F83E90216C41F00401216484F83C901EE0681C06D040
:20B00000FEF7BEFBA0EB0800A8420AD84DB12068012F15D0008B26EA00000004000C0DD000
:20B02000D1E744F8309F84F80DA084F80E90216941F02001216184F80C900120BDE8F08757
:20B04000808AE8E72DE9F04116460D46044600274FF0200817E0808AC043C0060DD454F852
:20B06000301B4FF6EF70888244F80D7B04F81D89A777206A2062277717E0FEF781FB801BA6
:20B08000A84208D83DB12068818AC9434906E2D40020BDE8F08144F8307F84F80D80A77310
:20B0A000206940F02000206127730120F1E770B516460D4604460DE02046FFF7ADFA08B1DC
:20B0C000012070BD681C05D0FEF75AFB801BA84207D835B12068808AC0430006ECD40020BA
:20B0E00070BD002044F8300F20216173A073216941F0200121612073E2E7FEE7704700000A
:20B1000030B50F23C27801780125FAB1144A126801F1E02102F4E062C2F5E062C2F30722BA
:20B12000C2F10404D3404278A24084781C401443220181F80024007800F01F018D40400998
:20B14000800000F1E020C0F8005130BD01F01F0085404809800000F1E020C0F8805130BD7B
:20B160000CED00E00249084302490860704700000000FA050CED00E070470000044A0029F0
:20B18000116801D0014300E0814311607047000030380240044A0029116801D0014300E0C6
:20B1A000814311607047000040380240044A0029116801D0014300E0814311607047000018
:20B1C00044380240044A0029116801D0014300E081431160704700002438024070B5204BB2
:20B1E0001968204C11F00C0104D01F4E042903D0082903D004601BE0066019E0184A121FBE
:20B200001168C1F38055116801F03F0115B1B6FBF1F101E0B4FBF1F114681268C4F388146E
:20B220006143C2F30142521C5200B1FBF2F1016019680F2202EA11110C4A545C0168E14072
:20B2400041601C68072505EA9424145D21FA04F484601B6805EA5333D25CD140C16070BD09
:20B26000083802400024F40040787D01040300200029018802D041F0400101E021F04001AE
:20B2800001807047002A828801D00A4300E08A43828070470246002012890A4200D001207E
:20B2A000704730B502884C8802F441530A88CD8822438C882C4322430C8922434C892243A2
:20B2C0008C892243CC8922431A430280828B22F400628283098A018230BD00007CB500207D
:20B2E0000D4600900190144610210748FDF7C4FF064823466A462946806902F019F908B1CD
:20B3000000207CBD20467CBD00000240700200207047000010B58A0721F003040849120FCA
:20B3200021440F23D1F8084893409C43C1F80848D1F8083890400343C1F8083810BD0000BD
:20B34000003001400CB50022274900920192086840F4803008604FF4A043086800F400308E
:20B3600001900098401C0090019810B900989842F3D10868800334D5012001901A484030A0
:20B38000026842F0805202601848026842F4404202601548083002680260026842F40042B6
:20B3A0000260026842F4A0520260031F104A1A600A6842F080720A600A689201FCD50D4915
:20B3C00040F205720A60016821F003010160016841F0020101600168C1F381010229FAD1E8
:20B3E0000CBD01920CBD0000003802400070004019544007003C02404FF0E02104280869EF
:20B4000003D020F004000861704740F00400FAE7044801684268491C42F100020160426014
:20B4200070470000F0010020124810B5016841F4700101601048016841F0010101600E4A08
:20B4400000210832116002680C4B1A400260031D0B4A1A60026822F48022026006480C30A6
:20B460000160FFF76FFF03488038016841F00061016010BD88ED00E000380240FFFFF6FE1A
:20B480001030002410B50C4C0121204600F03CF8002810D009498868CA68401C42F1000272
:20B4A0008860CA60096801B188472046BDE81040012100F012B810BD00000140C80100205A
:20B4C0000029018802D041F0800101E021F0800101807047C94301827047C94301827047FF
:20B4E0000029018802D041F0010101E021F0010101807047002A828901D00A4300E08A4369
:20B5000082817047406A704702460020138A92890B4202EA010202D0002A00D00120704710
:20B5200070B5028C22F480520284058C8288838B0C8823F4E6464FF6FF7303EA0424344327
:20B5400025F400568D8903EA053535434E8803EA06362E43084DA84202D0084DA84205D131
:20B5600022F480450A8A03EA82122A438280848389680164068470BD0000014000040140D2
:20B58000828B4FF6FF7322F4006203EA012111438183704730B50288164C174DA0420DD05D
:20B5A000A8420BD0B0F1804F08D0144B984205D0134B984202D0134B984203D122F07003D5
:20B5C0004A881A43104B984206D0104B984203D022F440730A891A4302804A68C2620A8886
:20B5E0000285A04201D0A84201D1897A01860121818230BD000001400004014000040040EF
:20B6000000080040000C0040001000400014004010B50B4C2088800608D5A0880949C0B2DF
:20B6200009688847208820F0200007E00821204600F04DF8A088208820F00800208010BDF2
:20B6400000100140FC01002038B5134D2021284600F03DF82C1D58B120888DF800000121BA
:20B66000684600F043FD2021284600F01BF838BD0821284600F02BF80849094B20880878CE
:20B68000421C0A706428F2D3186B0028EFD0186B01B0BDE83040004700480040E4020020F9
:20B6A00020430020C943018070470029818902D041F4005101E021F4005181817047002A0E
:20B6C000828A01D00A4300E08A43828270470246002012880A4200D00120704710B5C1F369
:20B6E000421301F01F040121A140012B07D0022B07D01430002A026805D00A4304E00C30BD
:20B70000F8E71030F6E78A43026010BD7FB50446008A0D46C98820F4405001432182A089D1
:20B7200041F20C618843A9882A8911436A8902431143A181A08A20F44071A8890843A0822B
:20B740006846FFF74BFD1A48844202D01948844201D1039800E00298A189090400EBC00112
:20B7600001EB0010296801D5490000E08900B0FBF1F06422B0FBF2F109010B096FF018057A
:20B780006B4300EB8300A3891D044FF0320306D503EBC000B0FBF2F000F0070005E003EBEC
:20B7A0000010B0FBF2F000F00F00084320817FBD00100140001401400029818902D041F4E5
:20B7C000004101E0C1F30E0181817047FEE7F0B500244FF0020C45681AE0621952080668E6
:20B7E00002EB820736F827300CEB8707F65B99421E44B6B207D3B14205D2006802EB820157
:20B8000000EB8100F0BD994201D2154600E0541CAC42E2D30020F0BD80E80E0000207047F9
:20B8200070B5044608881546101A4A8880B2824201D8012070BD0A793AB1012A1DD0022AE3
:20B8400012D0032A1DD0062070BDA26842B109891268084480B21946904718B1002070BDC6
:20B86000042070BD052070BD09891A46084481B22046BDE8704000F046B88968085C18702E
:20B88000ECE7D1E902242846A446BDE870401946604770B5054608881646101A4A8880B2B8
:20B8A000824201D8012070BD0C793CB1012C1ED0022C13D0032C1ED0062070BDAA684AB182
:20B8C00009891B780844526880B21946904718B1002070BD042070BD052070BD09891A78F8
:20B8E000084481B22846BDE8704000F022B889681A780A54ECE70C698A683046A446BDE81C
:20B9000070401946604770B514460D460646FFF75EFF010009D04879C00708D023462A46ED
:20B920003046BDE87040FFF77BBF012070BD022070BD77B581B00D460646FFF748FF040032
:20B9400005D06079810704D4022004B070BD0120FBE740070AD56B462A4621463046FFF7B9
:20B960005FFF9DF8000008B10320EEE703AB2A4621463046FFF78DFFE7E700002DE9F0438F
:20B980003A4887B0384E866100240121009408030194FFF70BFC01210846FFF7EFFBDFF8E3
:20B9A000D090052211464846FDF74FFC052206214846FDF74AFC052207214846FDF745FCB4
:20B9C00002258DF804508DF8055020208DF8064000908DF8075069464846FDF7FAFB402090
:20B9E000009069464846FDF7F4FB8020009069464846FDF7EEFB01274FF010088DF80470D5
:20BA000069464846CDF80080FDF7E3FB142102A8FCF7F9FEADF808404FF48270ADF80A0038
:20BA2000ADF810702802ADF812000720ADF80C40ADF81480ADF81800ADF80E50ADF81640F4
:20BA400002A93046FFF72DFC01213046FFF710FC012203213046FFF715FC00F0F5FA07B0B2
:20BA60000120BDE8F08300000030014070020020000002400907090E002804DB00F1E02029
:20BA800080F80014704700F00F0000F1E02080F8141D70470907090E002804DB00F1E020F4
:20BAA00080F80014704700F00F0000F1E02080F8141D704730380A2801D20120704700208E
:20BAC000704700002DE9F04FDFF8D4909A4600244FF0030BB4FBFBF50BFB154393422ED3FB
:20BAE00002EB0A059D422AD904EB440509EB05170023C0F30728C0F3074C07F5707708FA30
:20BB000003F52D0601D5462500E0222527F813500CFA03F52D0601D5462600E0222607EB83
:20BB200043052E8200FA03F6360601D5462600E022265B1C9BB22E84082BE0D329E004EB20
:20BB4000440509EB05170023C1F30728C1F3074C07F5707708FA03F52D0601D5462500E04E
:20BB6000222527F813500CFA03F52D0601D5462600E0222607EB43052E8201FA03F6360647
:20BB800001D5462600E022265B1C9BB22E84082BE0D3641CE4B2062C9CD3BDE8F08F000004
:20BBA0000A0A002070B58CB000240A94182168460B94FCF728FE069407940894012102207A
:20BBC0000994FFF7DBFA01210D022846FFF7EEFA03208DF82C0001260A968DF82F400AA93E
:20BBE0002048FDF7F6FA01212846FFF7EBFA00212846FFF7E7FA4FF44030CDE906404FF436
:20BC0000A060CDE9084006A8FDF776F8164D00948DF804408DF805400294039404948DF842
:20BC2000146069462846FDF77DF80023012208212846FDF79DF801212846FDF753F80B4882
:20BC4000017849B1012905D12968890702D5E96C418004700CB070BDA96841F08041A960FA
:20BC60000670F7E70004024000200140F8010020FFF798BF10B5084C2068401C206061681D
:20BC80004843B0F5FA7F05D304210448FDF702FB0020206010BD0000E80200200000024008
:20BCA00070B50D465168144600208847012802D0207810B105E0002070BD287808B101200A
:20BCC00000E0002061688847287800B101202070F1E710B552680C4600209047207000207A
:20BCE00010BD00002DE9F0472E4C8946A446D4E9013794F801809CF802600146DCE9034CA4
:20BD000000200546A444B8F1000F11D08EB9264EB069086076690120761EA64211D3B445A2
:20BD20000FD3B9F1010F0CD9022001254E6008E03EB19A4201D21A4603E0DE19964200D222
:20BD4000324603EB070A924529D91368DE0724D0261D5B1EB34220D39C451ED310281CD2A3
:20BD600033F8026C33F8047C4FF01F08B8EBD62F04D14FF01E08B8EBD72F03D04727B7EBAB
:20BD8000162F0AD1484508D2022803D115B14E689E4202D041F82030401C121DD3E7BDE87D
:20BDA000F08700001403002044440020F0B589B00C46074620222E496846FCF7F2FC2D4EED
:20BDC000D6E90101327812B172780AB1FEE7FEE7012247F3001372705B1C04F12005F37080
:20BDE00000D04835854202D34318AB4200D2B2702A4600F069F9B0781F4978B920680860AB
:20BE000060684860A0688860E068C8602069086160694861A0698861E069C86117480068C3
:20BE200041F8200F1548001D0078087113481030006888601148401D007808730F48143000
:20BE4000006808610D48801D008888820B48083000680A4A88610C321288CA61074A1832BF
:20BE6000128828460A6201F035FA09B0F0BD000048EC0008140300204444002024ED00E0BC
:20BE800030B54FF6FF7248F208440DE010F8013B5A400023D50702D084EA520200E05208E9
:20BEA0005B1CDBB2082BF5D3491E89B2EED2D04380B230BD10B502460020054C03E012F884
:20BEC000013B4340E05C491EC9B2F8D210BD00003EEB000810B503460078012202E09C5C3A
:20BEE0006040521C8A42FADB10BD000070B50420FFF782FA4FF0E0240848606165170F210B
:20BF00002846FFF7B7FD0020A0610720206101462846BDE87040FFF7ADBD00003F90020005
:20BF200030B506490B684A6800220D684C68ED1A64EB02042D1A9441F7D330BDF00100201D
:20BF400030B5012191B08805FFF718F90024202004900B94400106901848019005944FF4CA
:20BF600000300A9080020D940090089440200C94039007941248134D099402900E94694640
:20BF80002846FDF779F8012210212846FDF75EF846208DF83C008DF83D408DF83E40012075
:20BFA0008DF83F000FA8FFF7ABF8044801228021001FFFF784FB11B030BD000004100140C6
:20BFC000EA090020B864024070B590B03C216846FCF719FC01214805FFF7D0F8174D284679
:20BFE000FCF788FF154EA83E3046FCF783FF14480024CDE900401348029003AA40200321FF
:20C0000082E8130000010690400007908000CDE908040001CDE90A04CDE90C14694628463B
:20C020000E94FDF729F807486946801DCDE902043046FDF721F810B070BD0000B860024028
:20C040000C3C00406402002070B590B03C216846FCF7D9FB01218805FFF790F8174D28469C
:20C06000FCF748FF154E783E3046FCF743FF4FF0C060009012480190124802904020039009
:20C0800000240520CDE904042815CDE9060480010894CDE909400320CDE90B400D9469460C
:20C0A00028460E94FCF7E8FF06486946401DCDE902043046FCF7E0FF10B070BD886402401D
:20C0C0000C300140AC020020074B01449B7843B1824201D2024604E0914202D20A4600E0DD
:20C0E000121D9142FCD87047140300202DE9F041464E0D460146B06A726AF41C801A2844FB
:20C10000202801D9B4627462B06A2A46FCF7C2FAB06A2844B062B0784FF000085027D0B3D7
:20C12000012835D1B06A716A401A052839DB01251BE0706A007837EA00000AD1706A0221D4
:20C14000401CFFF7B7FE716A097801F00F0188423BD0B08D411CB1850A2803D3306B08B17A
:20C16000306B8047706A401C7062706AB16AC01C8842DED9B06A716A401A716AC7B23A46E0
:20C18000F01CFCF7CCFA7462F019C01CB062B570B078BDE8F081FFE7B06A716A401A03284A
:20C1A00001DA0120F5E7012529E0706A007837EA000018D1706A0221401CFFF77BFE716A79
:20C1C000097801F00F0188420DD1A6F82C80706A716A8078497840EA01203080706AC01CCC
:20C1E00070620025C6E7B08D411CB1850A2803D3306B08B1306B8047706A401C7062706A2B
:20C20000B16AC01C8842D0D9B4E70000204300202DE9F0411B4D4FF44461288880B200F02D
:20C220001DFC04462E1FA0F57F404FF4C467FF3809D03A462146144800F068F8002800D1F0
:20C240007480BDE8F081104C45F65B2040F21E6120800220608000206060EA682046904700
:20C26000A4F81E0640F2166104F10800FCF7CBFA3A467188204600F04EF80028E1D1298800
:20C280007180DEE7D4020020EC0E002070B51C4C1C4D4FF6FF766388002000EB400135F8C4
:20C2A00011209A420BD805EB410149881144994205D900EB400005EB4000868803E0401CD5
:20C2C000C0B20228E9D30120B0434FF4C46110FB01F60D4D6868401C68600948001D891E25
:20C2E000C26828469047A5F81E064FF4C4623146284600F010F8002800D1668070BD0000BC
:20C30000D002002032EB0008EC0E00200B460146184600F0A9BC0B460146184600F0B8BC47
:20C3200001490844007A7047EC0E002040F21662904202D2014A104401727047EC0E0020E9
:20C3400010B50B4C207808B900F030F8607840B1FFF79CFF00B10120207100206070012082
:20C36000E0702079002801D04FF0FF3010BD0000C80200202DE9F0410B4F064614463878BF
:20C380000D4648B900F012F806E03046FFF7C8FF641E05F8010B761C002CF6D1387900284D
:20C3A00000D0601EBDE8F081C802002010B500F03FFCFFF72DFF00B1012002490871012066
:20C3C000087010BDC8020020054910B50978044609B9FFF7EBFF2046BDE81040FFF7A0BFFE
:20C3E000C802002070B50A4D06460C46287808B9FFF7DCFF3046FFF793FFA04207D001202F
:20C40000687021463046BDE87040FFF78FBF70BDC8020020FFF7E6BF10B50C46FFF7D4FF3C
:20C420002070012010BD10B5FFF7F4FF012010BD2DE9F04106460D46481E81B21F461446A4
:20C440003046FFF747FD71190B4D11F8011C884204D100F03BFE0020E87000E0E8783078FC
:20C460002070E87860707F1EB9B22046FFF732FDA070BDE8F0810000480000202DE9F04194
:20C4800006460078DDF8188010700D46481E81B21F4614463046FFF71DFD7119174D11F8C3
:20C4A000011C884203D0E87840F0010012E07078AA2803D0E87840F002000BE0B8F1000F7D
:20C4C00013D001F0D1F808B9E87803E0E87840F0100011E06070781E81B22046FFF7FAFC3F
:20C4E000E11901F8010CBDE8F08101F0DDF80028ECD1E87820F01000E870EBE74800002069
:20C500002DE9F0411446B0F80160427862708278491E1F460546A27089B2FFF7DBFC014673
:20C52000E8780025814206D00F48E570C07840F0010120460FE0E21C31460C48FFF7E3F9D7
:20C5400028B101282046E57004D0102103E02046257101E0402121717F1EB9B2FFF7BAFCB2
:20C560006071BDE8F081000048000020D40900202DE9F0411F461446054600F0F1FD1D4ED5
:20C5800010B900F037FD708069782A780B465140AA78601C92EA010F174909D0728802807A
:20C5A00072684280327A4271C97841F0010107E0B3727288028072684280327A4271C97848
:20C5C0008171717AC171217860784840A1784140E07848402179414060794840A1794140C2
:20C5E000E0794840217A4140E01900F8011CBDE8F0810000C8090020480000202DE9F0417A
:20C600001446B0F80160427862708278491E1F460546A27089B2FFF75DFC014628798142D3
:20C6200005D01248C07840F00101204616E0EA7831460F48FFF77DF9002528B101282046DC
:20C64000E5700AD0102109E0E21C31460848FFF75AF9E0702046257101E0402121717F1EC6
:20C66000B9B2FFF737FC6071BDE8F08148000020D40900202DE9F04105460078DDF8188063
:20C6800010700E46481E81B21F4614462846FFF721FCA919144E11F8012C0021904204D0CC
:20C6A0006170F07840F0010008E06878AA2810D0BB2812D06170F07840F00200A070781EC0
:20C6C00081B22046FFF706FCE11901F8010CBDE8F081404600F0BCFD02E0404600F076FDB9
:20C6E0006070F078EAE700004800002010B5204C2DED028B608940F63401884202D8608910
:20C700000A2803D2E07840F02000E07018480A3000F0E2F901F040FD9FED161B53EC112B4F
:20C7200001F08AFD41EC180BE06901F0AFFF9FED131B53EC112B01F07FFD53EC182B01F034
:20C740001FFB01F0EBFA00EE100A0E4984ED070ABCEEC00A10EE100A0872087A8C2803D3F6
:20C76000E07840F02000E070BDEC028B10BD0000480000207B14AE47E17A743FD7A3703D9D
:20C780000AD7EF3FC809002070B51A4C4FF416720023206B616BFBF797FD174D1A4308D1A9
:20C7A000A87A00F0070000F087FBA87AC00801F043FA1422206B0023616BFBF785FD1A4355
:20C7C00008D1287830B101F035F800F00F006872FFF750FA287820B1FCF77CF96860FFF731
:20C7E00085FF206B616B401C41F100012063616370BD000048000020C8090020F8B5304ADB
:20C800002E488021126800922D4A083253692DA2FBF7E6FD00F040FF20B12C48C17841F006
:20C820001001C17025482A4B08222A498C30FEF7F3FF00F087FD284800F078FD274800F0EC
:20C840007BFD274D4FF400702860FFF711FA01F0B1F800F051FC2348FCF742F904230122F6
:20C860000221214800F0B4FF0823042202211F4800F0ECFA1E494FF4FA7000F07FFF00F066
:20C88000A1FF1C48FCF7D2F90C4CA9208034A0724FF4E1763046FFF743FBB220A072304651
:20C8A000FFF73EFBBB20A0723046FFF739FB0020A0720120207040062860F8BD48090020E5
:20C8C00000E9000825732E25730000004800002024E9000824010020F9C8000835CA000877
:20C8E0001804024051D40008000002400008024040420F0089C70008F8B53F4E044630463E
:20C90000FEF700FE3D4DF26AA969411A1144F26A0026B1FBF2F302FB1311A861032901D33F
:20C92000AE81EE80E888364A0121D0B101282FD1A8890244401CA88114706A782F4F02F0CC
:20C940000F00383707EB0010AC898389A3421FD82C4C4B0223602B782B4C13B3012B2CD1E9
:20C9600025E0532C15D0512C13D0522C11D0552C0FD0562C0DD0542C0BD0A8890244401CA2
:20C98000A881147053206870E9802889401C2881F8BD6C70A8890244401CA8811470E98006
:20C9A000F8BDA36843F08043A360297005E02168890702D5E16CA9802E70A9886981A97800
:20C9C00084688A4201D0012100E000210091C389A989D0F804C022460948E047687800F060
:20C9E0000F0007EB0010C189204600F0B3FCAE81EE806878A870F8BD0000014048000020E4
:20CA0000E0090020180402400020014010B501F041F900F0C1FC00F04FFE00F09FF90448A0
:20CA2000D0E90A12491C42F10002C0E90A1210BD48000020064801884906FCD58088054940
:20CA40000020888104494FF000700860704700000010014048000020180402402DE9F04332
:20CA600004464FF4C469B1FBF9F0ADF2246D4FF6FF774FF0FF3600F0FF08002522E04A465A
:20CA800021466846FFF742FCBDF800106846A1F5B4425B3A11D1BDF9021002290DDB0D49A6
:20CAA000CA6840F21E619047BDF81E16814204D10198B04201DD2746064604F5C4646D1C6F
:20CAC000A4B2EDB24545DAD30DF2246D3846BDE8F0830000D402002070B500262DED048B1A
:20CAE000474C008801F058FB9FED461B53EC112B01F0A2FB41EC180B53EC182B84ED068B0D
:20CB00009FED420B51EC100B01F0D6FC9FED411B53EC112B01F090FB53EC182B01F0E4F9F2
:20CB200041EC100B9FED3D1B84ED040B53EC112B01F080FC5FD89FED3B0B53EC102B94ED5D
:20CB4000040B51EC100B01F03BFB54D85F202070364D20E0207835F8100001F01DFB94ED2A
:20CB6000041B53EC112B01F02BFB207802D2A08061880DE035F8100001F00EFB94ED041BCB
:20CB800053EC112B01F056FC207827D26080A1880844400820706088A188401A0128D9D1DB
:20CBA000A08835F8100001F0F7FA94ED048B53EC182B01F075FC41EC190B608835F81000C4
:20CBC00001F0EAFA53EC182B01F076FC53EC192B01F030FC204608D2818807E0A0606188E2
:20CBE000A088081A0128DBD001E04188A160A680BE20608000E0A660207ABDEC048B70BDA3
:20CC0000000000206666666666664A3F6666666666660A400000000000E07F4000000000BA
:20CC20000038824000000000008EA14082E700080B4810B5094901600A49416000214FF4F7
:20CC400080424161C0E903128161C1610162FCF71BFFBDE810406420FFF762B9005C004018
:20CC6000CC420020801A06000EB54FF4FA638DE80E0002461023A0210448FDF777F80348CA
:20CC8000FCF7FEFE2028FAD100200EBDCC4200202DE9FC5F06464FF000094FEA521A02F0DD
:20CCA0001F082C48FBF7F6FC2A4C00254FF496774FF0200B25E0CDE9004B10233246A0212E
:20CCC0002548FDF74FF910B1C0F100091BE02248FCF7D6FE2028FAD13A463B46A0211E48C9
:20CCE000FCF788FF0328F7D01B48FCF7C9FE2028FAD12036B6B20A202034FFF711F96D1CD3
:20CD0000ADB25545D7D3B9F1000F1FD1B8F1000F1CD0CDE9004810233246A0210E48FDF76F
:20CD200021F90D48FCF7ACFE2028FAD13A463B46A0210948FCF75EFF0328F7D00648FCF73E
:20CD40009FFE2028FAD10520FFF7EAF80020BDE8FC9F00004C210020CC42002010B500F056
:20CD60000FFA1B4C18B1E07840F02000E07000F001FA18B1E07840F00400E07000F082FC84
:20CD800018B1E07840F01000E07000F08DFC18B9E07820F01000E0700E48408801F0FCF9CC
:20CDA0009FED0D1B53EC112B01F046FA9FED0C1B53EC112B01F040FA00F0B0FF2062D4E9DC
:20CDC0000A01401C41F10001C4E90A0110BD000048000020C8090020000000000000F03EAD
:20CDE000000000000080764070B508490848FCF7F0F94FF0E0254FF40004C5F880424020F1
:20CE00008435FCF791F9EC6770BD0000B80200200000024010B54FF0E0214FF40000C1F83F
:20CE20008001BFF34F8FBFF36F8F074C05492046FCF7CFF920460522BDE810400621FCF7D3
:20CE400004BA0000C0020020000002407CB5104C0025206121806280A3800095012104203C
:20CE60000195FEF78BF9208861880843A1880843009001208DF804008DF8065002208DF897
:20CE800005008DF8070069462069FCF7A2F97CBDD801002010B5074C21882069FCF7ECF9E7
:20CEA00061882069FCF7E8F9A1882069BDE81040FCF7E5B9D801002010B5204C0246082A50
:20CEC0002188206938D2DFE802F004080C101B142733BDE8104000F045B8BDE8104000F0E5
:20CEE00053B8BDE8104000F02BB8BDE81040FFF7D1BFFCF7C4F961882069FCF7BDF905E034
:20CF0000FCF7BAF961882069FCF7B9F9A1882069BDE81040FCF7B3B9FCF7B1F9618820693F
:20CF2000FCF7ADF9A1882069BDE81040FCF7A4B9BDE8104000F03AB810BD0000D8010020C4
:20CF400010B5074C21882069FCF796F961882069FCF795F9A1882069BDE81040FCF78CB933
:20CF6000D801002010B5074C21882069FCF784F961882069FCF780F9A1882069BDE8104079
:20CF8000FCF77AB9D801002010B5074C21882069FCF775F961882069FCF76EF9A188206949
:20CFA000BDE81040FCF768B9D801002010B5074C21882069FCF763F961882069FCF75FF919
:20CFC000A1882069BDE81040FCF759B9D80100204FF48060FEF7C6F8FEF788FFFFF70EFC5A
:20CFE000FFF714FDFCE700000149086849687047F00100202DE9F843304C00202168304F1F
:20D00000C1F340114FF4004C91B3002954D0A06840F02000A060E06840F00060E0602069F2
:20D0200020F001002061D4F8B80020F00100C4F8B800C7F818C0DFF88C80A8F12606D8F846
:20D040000210B8F8020049BA0091B178E9B104216A460023DFF8709004E012F8015B5D40FF
:20D0600019F80530491E89B2F7D213B1012101E013E00021F17021B1308A718A084480B2BE
:20D0800005E0318A411A718201E00121B170B8F80410C1F3402131713082C7F818C04FF07B
:20D0A0000041B961216941F001012161D4F8B81041F00101C4F8B810BDE8F88300600240C9
:20D0C000000002406A0200202CE90008024800210171C170704700004402002010B50E2047
:20D0E00000F054F8C0F3011010BD10B540F2131000F04CF8800910BD7CB501210320FEF754
:20D100003DF80020012401908DF8044003218DF805108DF8060002208DF8070010200E4DB9
:20D12000009069462846FCF754F810212846FCF7A3F88DF80740094DE4036946284600941C
:20D14000FCF747F821462846FCF799F800F088F9BDE87C40FEF738BF0004024000000240FE
:20D160000348417980790143C1F3000070470000440200200148C0787047000044020020FE
:20D180000148007970470000440200207CB5002100910191010B01D000207CBDC0F30B0047
:20D1A000094C40F44050ADF800004FF40045A561A003A061022201A9684600F003FAA56110
:20D1C000BDF80600000A7CBD000002400B494A79D20705D18A79D20704D08A79092A01D092
:20D1E0000120704708B1012003E08879092803D088798871887970470220FAE7440200207A
:20D200007CB50021094C00910191ADF800004FF40045A561A003A061022201A9684600F001
:20D22000D1F9A561BDF80600000A7CBD0000024010B504460E20FFF7A9FF04F0300120F0CE
:20D2400030000143BDE810400E2000F013B8000007494A798B791A43D20701D00120704786
:20D2600008B1012000E048794871487970470000440200207CB5002200920192020B14D132
:20D28000C0F30B0040F4C040ADF80000074C0802ADF802004FF40045A561A003A06102229D
:20D2A00001A9684600F08EF9A5617CBD0000024001B59DF800009DF801109DF803204840ED
:20D2C0009DF80210514048400149085C08BD00002CEA00082DE9F04391B00446402168461A
:20D2E000FBF791FA224610216846FEF7FBFC05460024E8460A4E4FF020090BE004EBC40083
:20D30000304458F82420074606A1FBF755F887F80890641CAC42F1D311B0BDE8F0830000B0
:20D32000B44300202530386C780000000149086070470000FC010020014948607047000036
:20D34000FC01002010B500F097FABDE81040FEF7F7BD00000E4A03781370437853708378FD
:20D360009370C378D370037913714379537183799371C379D371037A1372407A5072054861
:20D380000160001F016841F00101016070470000EA090020BC64024070B52B4CA079092501
:20D3A000052832D014DC012820D003281DD11020FFF73EFF254D10212846FBF75DFF022038
:20D3C000FEF7AEFD10212846FBF759FF05201AE00026072829D0092807D0A0F54070E738EB
:20D3E00003D1FFF77BFE2072A67170BDDC210120FFF740FF0120FFF7C9FEE071DC2801D1BC
:20D40000032000E00420A07170BDFFF76EFE6072032803D00228F7D1A572F3E70120A0725F
:20D42000FFF7E2FDA0610720EDE7FFF7DDFDA2690023801A61EB060141F65832101A8B4179
:20D44000E2D2A57170BD000044020020000402400248C17841F00801C1707047480000201C
:20D46000F0B587B0002401210594C8030694FDF791FE01210420FDF781FE2B4F06220A2183
:20D480003846FBF7E2FE06220B213846FBF7DDFE06220C213846FBF7D8FE02258DF81850EE
:20D4A0008DF8195068028DF81A4005908DF81B5005A93846FBF78DFEAE0205A93846059690
:20D4C000FBF787FEE802059005A93846FBF781FE14216846FBF797F9ADF800404FF482703A
:20D4E000ADF802000120ADF808004002ADF80A000820ADF80C00ADF80E4007200B4CADF8D7
:20D500000460ADF81000ADF8065069462046FDF7C8FE01212046FDF7ABFE01220321204656
:20D52000FDF7B0FE07B0F0BD00080240003C00402DE9F05F1E461746884682460025DFF867
:20D5400080904FF0FF3B34E0002406E0D9F80400641C844201D95D4605E002215046FDF7FA
:20D5600099FE0028F2D018F8011BAAF80C10002406E0D9F80400641C844201D95D4605E0B9
:20D5800080215046FDF786FE0028F2D1002406E0D9F80400641C844201D95D4605E0012148
:20D5A0005046FDF777FE0028F2D0BAF80C0007F8010B761EB6B2C7D22846BDE8F09F000082
:20D5C000700200202DE9F05FDFF898B016460F4680460025DFF88890DFF888A00BF10C0B98
:20D5E00037E0002407E0D9F81C00641C844202D94FF0FF3505E002215046FDF74BFE002885
:20D60000F1D038F8021BABF80010002407E0D9F81C00641C844202D94FF0FF3505E0802137
:20D620005046FDF737FE0028F1D1002407E0D9F81C00641C844202D94FF0FF3505E00121AE
:20D640005046FDF727FE0028F1D0BBF8000027F8020B761EB6B2C4D22846BDE8F09F00001F
:20D6600044020020003C004005480168012903D001210160002070474FF0FF307047000096
:20D680002000002003480068022801D00020704701207047200000204FF4C46201490020DA
:20D6A000FEF768BE2803002002480068012800D0002070472000002010B5064C206800287B
:20D6C00006D0012804D1FEF73BFE00B10220206010BD00002000002030B58BB00121022084
:20D6E000FDF74CFD00240220CDE908048DF824000320204D8DF8250008A92846FBF769FD8B
:20D70000022201212846FBF7A0FD01210220FDF741FD059407946820174DADF814400690A1
:20D72000ADF81C40ADF816408DF81E4005A92846FDF730FF14216846FBF765F86021ADF873
:20D7400000100120ADF802000420ADF8040042200290ADF80C4069462846FDF7E1FE01212D
:20D760002846FDF7ADFE08212846FDF709FF0BB030BD000000040240000400403EB50D4691
:20D78000044601210846FDF711FD641E0B4801940B4C00686946B0FBF5F0401EADF8000062
:20D7A0000020ADF80800ADF802002046FDF7F2FE01212046FDF78EFE3EBD0000F002002096
:20D7C0000000014001210148FDF78ABE000001407CB5174CA060E060206121806280A38025
:20D7E0006846FBF74EFD01210846FDF7C7FC208800258DF80450012600908DF8076069461F
:20D80000A068FBF7E6FC60888DF8045000908DF807606946E068FBF7DCFCA0888DF804502D
:20D8200000908DF8076069462069FBF7D2FC7CBD0402002070B50F4D2988A868FBF715FDCF
:20D8400088B1002084006988A868FBF70EFD60B1002044EA4004A988A868FBF706FD30B133
:20D860000020204370BD0120ECE70120F1E70120F7E7000004020020F0B587B001210220C6
:20D88000FDF77CFC01211020FDF790FC2D4F072206213846FBF7D9FC072211463846FBF749
:20D8A000D4FC02208DF8040003208DF80500002440208DF80640012500908DF807506946B0
:20D8C0003846FBF786FC8020009069463846FBF780FC6E028DF80450694638460096FBF78D
:20D8E00078FC184818300660174E01213046FDF763FF16480290ADF810400C20ADF80C4051
:20D90000ADF81200ADF80E40ADF8144002A93046FDF7FCFE012240F225513046FDF7DEFE44
:20D9200025208DF818008DF819408DF81A408DF81B5006A8FDF7E4FB01213046FDF7B5FE98
:20D9400007B0F0BD0004024000100140E0707200002203231146FF20FEF7B4B810B5104CCA
:20D96000207870B101280BD10022032311461046FEF7A8F8A068401CA060C00700D12070D3
:20D9800010BD0022032311464FF47F00FEF79AF8A068401CA060C007F2D10120EFE70000ED
:20D9A000180200200323002211464FF47F00FEF789B8000030B58FB0002000F03DF9FFF736
:20D9C0008BFE01214805FDF7D9FB3C216846FAF71AFF4FF020600090184801901848029040
:20D9E000402003904FF41C70049000204FF48061CDE9050149000791890008914911CDE9BE
:20DA000009100321CDE90B010E4C0D900E9069462046FBF731FB094D0121403D2846FDF7E8
:20DA20005FFD01212046FBF75BFA0FB02846BDE8304001221103FDF75DBD000040040040B0
:20DA40000A0A0020406002400C4B30B4586A0421B0FBF1F10322B1FBF2F4401C02FB1412CB
:20DA60005862C00702D04FF47F4001E04FF47F00012330BC0021FEF725B800001802002071
:20DA80000C4B30B4D8690821B0FBF1F10322B1FBF2F4401CD86102FB14124008C00702D004
:20DAA0004FF47F4001E04FF47F00012330BC0021FEF708B8180200200E4B30B4186A0821B9
:20DAC000B0FBF1F10322B1FBF2F402FB1411401C1862C1F102014008CAB2C00702D04FF4B5
:20DAE0007F4001E04FF47F00012330BC0021FDF7E9BF0000180200200D4B30B4986A04215A
:20DB0000B0FBF1F10322B1FBF2F402FB1411401CC1F102019862CAB2C00702D04FF47F407D
:20DB200001E04FF47F00012330BC0021FDF7CABF180200200323002211461046FDF7C2BFF0
:20DB40000323002211464FF47F40FDF7BBBF0000094B30B458690121B0FBF1F10322B1FB3D
:20DB6000F2F402FB1412401C58610123FF2130BC0020FDF7A7BF000018020020094B30B46B
:20DB8000D8680221B0FBF1F10322B1FBF2F402FB1412401CD8600123002130BCFF20FDF7E3
:20DBA00091BF0000180200200A4B30B418690221B0FBF1F10322B1FBF2F402FB1411401C3C
:20DBC0001861C1F10201CAB20123002130BCFF20FDF778BF180200200A4B30B4986901218A
:20DBE000B0FBF1F10322B1FBF2F402FB1411401C9861C1F10201CAB20123FF2130BC0020E9
:20DC0000FDF760BF18020020094B30B458680221B0FBF1F10322B1FBF2F4401C586002FB47
:20DC20001412012330BC00210248FDF74BBF00001802002000FF7700182829D2DFE800F0A3
:20DC40000C0E10121416181A1C1E28202224282828282828280E1026FFF76CBFFFF7A2BE91
:20DC6000FFF76EBFFFF7D0BFFFF778BEFFF786BFFFF79ABFFFF76CBFFFF7AEBFFFF700BF0D
:20DC8000FFF71ABFFFF7E0BEFFF736BFFFF760BE7047000070B5204C607900250426082882
:20DCA00011D2DFE800F010041011101F102A4FF4A040FFF7A5FA552804D1FFF795F96061DD
:20DCC00003200DE0667170BDFFF78EF96269821A61EB05010020D2F104028841F3D205205E
:20DCE000607170BD4FF44040FFF78AFA5528E9D1FFF77AF960610720F2E7FFF775F9626959
:20DD000041F65833821A61EB050100209A1A8841E7D20220E4E700004402002021F0004257
:20DD2000A2F16052B2F5801F01F0004328BFD2F17F6C0BD95FEA001C43EAC20242EB507068
:20DD400018BF704728BF20F001007047B2F5801FBCBF184670474FEA410C1CF5001F02D226
:20DD6000084600F009BD70B500F010FB00000089FFF7F6BF4FF00040A0F580007047000000
:20DD800010B591EA030F48BF83F0004300F19C83841A71EB030C05D2121943EB0C03001B01
:20DDA00061EB0C01DFF824E14FEA1154A4EB135C1EEA430F18BF9EEA445F73D023EA0E03D5
:20DDC000DCF1200E21EA045143F4801332D322FA0CFE10EB0E0023FA0CFE41EB0E01CCF1CB
:20DDE000200E03FA0EFE10EB0E0051F10001B1F5801FCCF1200E32D201EB045112FA0EF21F
:20DE0000BDE8104058BF7047401C38BF5FEA420218BF7047002814BF20F0010041F1000192
:20DE20004FEA410313F5001F38BF7047A1F1C04100F0FABA012A43EB0302ACF1200CDCF165
:20DE40001F0E32BF4FF0000E23FA0CF310EB030041EB0451B4EB115FD0D0A1EB045101F536
:20DE6000801149085FEA300001EB04510ED350F1000038BF12FA0EFE08D1BDE81040C9E757
:20DE8000401C38BF5FEA4202CAD1C3E7BDE810404FEA410313F5001F38BF7047A1F1C04183
:20DEA00000F0C2BA9EEA445F08D011EA5E0FBDE8104004BF01F0004100207047BDE81040D5
:20DEC00070B500F063FA00BF64FBBE3E0000E0FF491058BFC1F140415B1058BFC3F140437B
:20DEE0008B42EFF3008070472DE9C04130B4DFF8A0C23CEA111418BF3CEA131400F0EC803D
:20DF000081EA03051CEA111444EAD57418BF1CEA131500F0C780A4EB05044FF0004545EA65
:20DF2000C12145EAC32341EA505143EA525304F17F74994204F500344FEAC0204FEAC22226
:20DF400008BF904200F09C804FEA13650FF24016765D4FEA134506FB05F7C7F1807706FB03
:20DF600007F74FEAD737A7FB03687642C8F58038A7FB06CE38BFA8F1010807FB08E64FF0E4
:20DF8000000EA6FB028CE6FB03CEDCF1000CCEF1004E38BFAEF1010EA6FB0C584FF00007BC
:20DFA0004FF00005E6FB0E87A1FB08C6A0FB07CE16EB0E0645F10005E1FB076515F1E04E01
:20DFC0007EBFA4F580345FEA46066D4116F1800745F100054FEA17274FEA066647EA0567F2
:20DFE000A6F1DE46B6F1805F4FEA15251FD9384624F0010C05EBC471BCF1FE6F01EB0C118E
:20E0000002D8F0BCBDE8008124425CBF01F5801E9EEAC47F02D4F0BCBDE80081244238D45A
:20E02000F0BCA1F1C041BDE8004100F0FDB94FEAD22242EA43524FEAD323A7FB02864FEA95
:20E04000D02040EA415007FB03661EEA0E0F4FEAD12105FB026658BFA6EB0056B6EB0056FD
:20E060004FEA520E4EEAC37E18EB0E0E56EB530EBDD518EB02085E417F1C55F10005B6E70C
:20E080004FF480154FF000074FF000064FF00008ADE7F0BC4FF0000001F1C04101F0004132
:20E0A000BDE8008111EA0C1F0CEA131500D00CE013EA0C1F00F025804FF00000F0BC81EA27
:20E0C000030101F00041BDE80081F0BCBDE8004181EA030100F0A8B9F0BCBDE8004170B5DB
:20E0E00000F054F9097EFC3E00F007B881EA03014FF0000001F00041704781EA030100F07D
:20E1000093B9F0BCBDE800414FF0000021497047FFFDFBF9F7F5F4F2F0EEEDEBE9E8E6E4AE
:20E12000E3E1E0DEDDDBDAD8D7D5D4D3D1D0CFCDCCCBCAC8C7C6C5C4C2C1C0BFBEBDBCBB30
:20E14000BAB9B8B7B6B5B4B3B2B1B0AFAEADACABAAA9A8A8A7A6A5A4A3A3A2A1A09F9F9E59
:20E160009D9C9C9B9A9999989797969595949393929191908F8F8E8E8D8C8C8B8B8A89894E
:20E18000888887878685858484838382828181800000FF070000F87FB0FA80F310FA03F1A5
:20E1A0000AD0C3F11D0303F580634FEA41504FEA035202EBD12170474FF0000070470000F2
:20E1C00051EA030C17D41CF5801F58BFBCF5801F00F10680994218BF704708BF90427047C3
:20E1E00007D711F5801F58BF13F5801F19D499427047894270471CF5801F08D5BCF5801F00
:20E20000F7D58B4218BF704708BF824270474FF4001C1CEB410F38BF1CEB430F01D28B42EF
:20E22000704770B500F0B2F8922449004FF000514FF08053FFF74CBEDFF848C170B51CEABC
:20E24000111E1EBF1CEA13159EEA0C0F95EA0C0F00F06F8081EA030423EA4C134EEAD47E00
:20E2600021EA4C1141F4801143F48013AE44A1FB024CA0FB0365AEF17F7E361955EB0C058B
:20E28000A1FB034C4CF10003A0FB021C16EB0C06654153F10003094218BF46F0010613F434
:20E2A000007F0BD14FEA03314FEA0530340341EA155140EA16506FF003020AE04FEAC32165
:20E2C0004FEAC520F40241EA555140EA56506FF0020202EB2E4201EB025585EACE710AD0FE
:20E2E0005FEA440C18BF24F0004450F1000041F1000120EAD47040F2FE7C624500D270BD42
:20E30000A84214BF4FF080444FF04044002E08BF0024BEF1806FA8BFA1F1C041BDE8704074
:20E3200080F282804FF0000001F1C04101F0004170479EEA0C0F0CEA131518BF95EA0C0F1C
:20E3400006D04FF0000081EA030E0EF0004170BD00F01CF88900013E00F007B800F009B894
:20E360004FEA430C5FEA5C5C08D081EA030100F05BB84FEA410C5FEA5C5CF6D14FF000003D
:20E38000014970470000FF070000F87F0EF1020E2EF0030E5EF8046B364205D4012A43EB52
:20E3A000030515F5001F12D8012841EB010C1CF5001F0CD80ED14FEAD17C15F5001F0CEB47
:20E3C0004C0C0CF1020C08BF4CEBD37C04E04FF0080C01E04FEAD37C0CEB4C0526FA05F68A
:20E3E00006F00706B6F1040C06D20EEB860CBDE870404CF0010C6047DFE80CF0090B0202E0
:20E400004FF000414FF00000A1F5002170BD19461046012851EB010418BFD4F5001484BF43
:20E42000002001F0004170BD0808A0F500114FEA3101704753EA010C17D41CF5801F58BF89
:20E44000BCF5801F00F106808B4218BF704708BF8242704707D713F5801F58BF11F5801F17
:20E4600019D48B4270479B4270471CF5801F08D5BCF5801FF7D5994218BF704708BF9042EC
:20E4800070474FF4001C1CEB430F38BF1CEB410F01D2994270470FB40CBC03BCFFF7C1BE9B
:20E4A00091EA030F10B581F000413FF571AC83F0004300F009B8000010B591EA030F48BF47
:20E4C00083F000433FF564AC841A71EB030C07D212198CF0004C43EB0C03001B61EB0C01BC
:20E4E000DFF8A4E14FEA1154A4EB135C1EEA430F18BF9EEA445F00F0B08023EA6E03524296
:20E5000021EA0451C3EB6E0338BF5B1EDCF1200E25D322FA0CFE10EB0E0043FA0CFE41EB77
:20E520000E01CCF1200E03FA0EFE10EB0E0051F10001CCF1200E29D412FA0EF201EB045157
:20E54000BDE8104058BF7047401C1CBFB2F1004F704700280CBF491C20F00100704712EBFB
:20E56000020E43EB030218BF4FF0010E4EEA4202ACF1200CDCF11E0E54D943FA0CFE10EB86
:20E580000E0051F1FF31CCF11E0ED5D50EF1010E12FA0EFE404141EB010101EB445C5FEABE
:20E5A0005C5C10D910EBDE7001EB045138BFBEF1004FBDE8104018BF704700280CBF491C60
:20E5C00020F00100704730D24FEAD42C11F5001124F400641BD0B1FA81F20B3AA41AA41ED7
:20E5E000D2F12003914030FA03F31943904001EBCC71002C01EB0451BDE81040A8BF70476F
:20E6000001F1C0414FF0000001F000417047B0FA80F310FA03F100D110BDE41A173C480588
:20E62000C90AE4E701EB045110BD491001EB0451BDE810404FEA300002E04FF0000170475D
:20E640004A0008BF0042F8D0B2F5001F28BF704701F000414FF0000070479EEA445F07D011
:20E6600011EA5E0FBDE8104004BF002100207047BDE8104070B5FFF789FE00BF40DFF63ED9
:20E6800083F00041104670470000E0FF43004FEAD30C4FEA3C0C43401FBF40070CF16051A8
:20E6A00013F0FE4F70471CF0006F03D100200CF0004170470CF0004343EA507010B540EAD5
:20E6C000CC0000F00EF800BF000000924FEA0001FFF7AABE4FF000414FF00000A1F5002119
:20E6E00070470EF1020E2EF0030E5EF8044B244204D44FEA4102B2F17F4F11D84FEA4003F0
:20E70000B3F17F4F0CD80ED14FEAD07CB2F17F4F0CEB4C0C0CF1020C08BF4CEBD17C04E045
:20E720004FF0080C01E04FEAD17C0CEB4C0324FA03F404F00704B4F1040C06D20EEB840CAF
:20E74000BDE810404CF0010C6047DFE80CF0070802024FF00040A0F5800010BD084642000D
:20E7600018BFD2F1807288BF00F0004010BD4FF04070E1EE100A7047FF2141EAD050C0050A
:20E78000704747024D02520258025D02630269026E02740279027F0285028B02910297022B
:20E7A0009D02A202A802AE02B402BA02C002C702CD02D402DA02E002E702ED02F402FA0292
:20E7C000010307030E0314031B03220328032F0335033C0343034A03510358035F036603DF
:20E7E0006D0374037B038203890391039803A003A703AE03B603BD03C503CC03D403DB03B1
:20E80000E303EA03F203F803FD03030408040E04170420042A0433043C0445044E04580435
:20E8200061046A0472047B0483048C0494049C04A504AD04B604BE04C704CF04D804E1048C
:20E84000EA04F204FB0404050C0515051E0527053005390543054C0555055E0567057005A8
:20E860007A0583058D059605A005A905B305BC05C605CF05D905E305EC05F60500060A0631
:20E8800014061D06270631063B06450650065A0664066E06780683068D069706A206AC0626
:20E8A000B706C106CC06D606E106EB06F60600070B07160720072B07360741074C0756078E
:20E8C00061076C07770782078E079907A407AF07BA07C607D107DC07E807F307FF070A0876
:20E8E000160822082D083908440850085C086808740880088C089708A308AF08BB08C708B7
:20E9000048ED000834ED00085CED000800ED0008A4EC0008E8EC0008B8EC00081CED00081A
