:020000040800F2
:20000000483800203D020008E932000823310008C9320008C50F00088D46000800000000C0
:200020000000000000000000000000006D3C0008D91100080000000045380008E53C00086F
:20004000570200085702000857020008570200085702000857020008570200085702000898
:200060005702000857020008570200085702000857020008F10F00085702000857020008D1
:20008000570200085702000857020008570200085702000857020008570200085702000858
:2000A000570200085702000857020008570200085702000857020008570200085702000838
:2000C0005702000857020008570200085702000857020008394600085702000857020008F2
:2000E0005702000857020008570200085702000857020008570200085702000857020008F8
:200100005702000857020008570200085702000857020008570200085702000857020008D7
:200120005702000857020008FD0F00085702000857020008000000000000000057020008C6
:20014000570200085702000857020008570200085702000857020008570200085702000897
:20016000570200085702000857020008570200085702000857020008000000000000000039
:20018000570200085702000800F002F800F047F80AA090E8000C82448344AAF10107DA4507
:2001A00001D100F03CF8AFF2090EBAE80F0013F0010F18BFFB1A43F00103184708540000EF
:2001C00028540000103A24BF78C878C1FAD8520724BF30C830C144BF04680C607047000074
:2001E0000023002400250026103A28BF78C1FBD8520728BF30C148BF0B6070471FB505F00D
:20020000CBF800F099FA04000020002105F0AEF8401C606000F0C2F91FBD10B510BD00F093
:2002200066FA1146FFF7EAFF04F04AFE00F096FA03B4FFF7F2FF03BC00F0D8FA0948804735
:2002400009480047FEE7FEE7FEE7FEE7FEE7FEE7FEE7FEE7FEE7FEE704480549054A064BDA
:2002600070470000913D0008890100084832002048380020483400204834002053EA020CA2
:2002800000F069802DE9F04B4FF00006002B1FBFB3FA83F503FA05F424FA05F65E4012BF43
:2002A0001643B2FA82F502FA05F4C5F120051EBF22FA05FC44EA0C04203556EA044C4FEA9C
:2002C000144418BF641C4FF000084FF00009904271EB030C39D3002919BFB1FA81F701FA78
:2002E00007F6B0FA80F700FA07F6C7F120071EBF20FA07FC46EA0C062037B6FBF4FCA7EB44
:200300000507103F07F01F0BCBF120062CFA06F60CFA0BFB44BFB3460026202FA4BF5E46D9
:200320004FF0000B5BEA060C08BF4FF0010B19EB0B0948EB0608ABFB027C06FB02CC0BFBB8
:2003400003CCC01B71EB0C01C1E70B46024641464846BDE8F08B13B5084318BF4FF0FF30BC
:200360000146AFF30080BDE81C40704770B5064600F026F90468054630460A22002100F072
:2003800023F92C6070BD10B5431C02E010F8011B71B18107FAD14FF0013202C88C1A8C4338
:2003A00014EAC211F9D0C01A0A0603D0C01E10BDC01A10BD0A0401D0801E10BD0902FCD073
:2003C000401E10BD40EA010370B59B072ED14FF00136042A2AD308C810C99D1B9D43121FEB
:2003E00015EAC61517D0D8B2E1B2401A50EA056110D198B2A1B2401A50EA05410AD123F0DF
:200400007F4024F07F41401A50EA052102D1180EA0EB146070BDA342DBD018BA21BA884263
:2004200001D9012070BD4FF0FF3070BD0AB9002070BD10F8013B11F8014B63B1A3420AD17C
:20044000521E08D010F8013B11F8014B1BB1A34201D1521EEDD1181B70BD032A40F230809B
:2004600010F0030C00F0158011F8013BBCF1020F624498BF11F801CB00F8013B38BF11F8DF
:20048000013BA2F1040298BF00F801CB38BF00F8013B11F0030300F02580083AC0F008802B
:2004A00051F8043B083A51F804CBA0E80810F5E7121D5CBF51F8043B40F8043BAFF3008073
:2004C000D20724BF11F8013B11F801CB48BF11F8012B24BF00F8013B00F801CB48BF00F830
:2004E000012B704710B5203AC0F00B80B1E81850A0E81850B1E81850A0E81850203ABFF4D0
:20050000F5AF5FEA027C24BFB1E81850A0E8185044BF18C918C0BDE810405FEA827C24BFC1
:2005200051F8043B40F8043B08BF7047D20728BF31F8023B48BF11F8012B28BF20F8023BA0
:2005400048BF00F8012B70474FF0000200B5134694469646203922BFA0E80C50A0E80C50B2
:20056000B1F12001BFF4F7AF090728BFA0E80C5048BF0CC05DF804EB890028BF40F8042B96
:2005800008BF704748BF20F8022B11F0804F18BF00F8012B704770477047704770B5064C73
:2005A0007C44064D7D4404E02046016808448047241DAC42F8D170BD505100005451000036
:2005C00000487047980000202DE9F04791460F4680460446002614F8015B2DB100F030F857
:2005E0000068405DC007F6D12B2D02D02D2D18D0641E4A463946204600F02AF827B139687A
:20060000A14201D1C7F800804FF0020471050BD54042002803DDFFF7D3FF0460A007BDE849
:20062000F08746F48066E4E70028F8DAFFF7C8FF04606FF00040F2E700487047980000200E
:2006400010B500F079F8001D10BD00BF214D00002DE9F05F824615468B4600270AF10104DD
:20066000B9460078302801D09DB113E014F8010B0127782803D0582801D045B10AE00DB1F7
:20068000102D07D1002714F8010B102502E0082500E00A250026B0460EE005FB080005FBA1
:2006A00006F101271FFA80F801EB1046B6F5803F00D3B94614F8010B294600F041F8002834
:2006C000EBDABBF1000F05D00FB1641E00E05446CBF80040B9F1000F06D0FFF771FF0221EE
:2006E0000160C81EBDE8F09F48EA0640FAE77546FFF7A2FFAE4605006946534620F007007C
:20070000854618B020B5FFF7A7FDBDE820404FF000064FF000074FF000084FF0000BAC46C4
:20072000ACE8C009ACE8C009ACE8C009ACE8C00921F007018D46704700487047B8000020CB
:200740003A2800D2303820F02002412A01D3A2F13700884201D34FF0FF30704710B50446F0
:20076000AFF300802046BDE81040FFF761BD000030B44FF0013C50F8042B51F8043BCCFAC3
:2007800052F4D51A20D1FCB950F8042B51F8043BCCFA52F4D51A17D1B4B950F8042B51F86F
:2007A000043BCCFA52F4D51A0ED16CB950F8042B51F8043BCCFA52F4D51A05D1002CDAD055
:2007C00030BC4FF00000704729BAB1FA81F111F01801D1F120008440F2D1CA40CB4012F09D
:2007E000FF0213F0FF0330BCD01A704701491820ABBEFEE72600020070470000BCB5002026
:2008000014A1002200230090002003F01DF8002003F048F804F05CFC104C11490125FA228F
:2008200000230095204600F087F8204600F0B1F81C340C4940F6B83201230095204600F058
:200840007BF8204600F0A5F800F011F8BDE8BC4000F0F2B9525454444F574E002802002081
:20086000694B0008714B000800F01EFAFCE7704780680844114604F089BA0000B0B50446E5
:200880001048056845B1284621460822FFF79AFD10B105F11000F4E72846B0BD10B50C685B
:2008A0004968C0E90223C0E9004106490A6822B102F110018242F9D110BD02490A680860B7
:2008C000026110BD043000208068084411461A4604F012BB8068084411461A4604F072BBDC
:2008E00070B5044622480025066826B37079C10719D0D6E9031222448A42326113D33179F0
:200900003561CA0703D140F0020070710BE0326812B1706990473179480704D5F08801380E
:20092000F080000402D006F11800DDE77079356100F0FE00E9E770BD10B5002401600421C5
:20094000C3800381C0E90324029A002B08BF08211143017106490A6822B102F1180182421F
:20096000F9D110BD02490A680860826110BD00BF0C3000204161704700210161417901F069
:20098000FE0141717047002101610189C18002F0E7BC02F0E5BC10B500F084F888B1EFF32D
:2009A000108172B6002200234BB9046D1CB1046D2280A0F8622081F31088043BF4E7002084
:2009C00010BD042010BDF8B51D4617460E4600F069F878B107650446C664A0F8545000F012
:2009E00045F80122EFF3108172B684F8572081F31088F8BD0420F8BD1CB500F053F880B132
:200A0000044690F8560050B907480849084A094B0090204600F068F8012084F85600002006
:200A20001CBD04201CBD00BFB94500083D4400080D440008F540000880B500F033F838B1C3
:200A4000014690F8580028B1002081F8580080BD042080BD082080BD10B50C4600F022F881
:200A600010B1C466002010BD042010BD10B50446C06B40B1E16DB4F860208463204602F0C9
:200A800081FA216805E02168C86840F02000C8600020CA6842F01002CA6010BDC06B00681C
:200AA000406870470449096891F84820824218BF00210846704700BF900000200168026924
:200AC00049688068B0F5805F06D0002809D17F20002A08BFFF2004E0FF20002A08BF40F24C
:200AE000FF1008407047000070B504461848049D06780EB90126067004302EC094F84800A0
:200B0000022804D1134920464822FFF7EBFCA06B00B1846320681049104D40680020A84735
:200B20000FA112A20020A84794F8482014A10020A847E26D15A10020A84719A1002070220A
:200B4000A8471DA100202A46BDE87040104700BF14020020B8310020A4550008A9390008C3
:200B60005B202573205D0D0A000000004253505F554152545F506F72745F496E6974000057
:200B800069643A2025640D0A0000000072785F627566663A203078252E38700D0A0000008E
:200BA000756172742073697A653A20256420627974650D0A000000002D2D2D2D2D2D2D2D68
:200BC0002D2D2D2D2D2D2D2D2D2D2D2D2D2D2D2D2D2D2D2D2D0D0A0D0A000000002070475F
:200BE0000BB102F0E9B9836B0BB102F039BA02F075BA0020704770B51C4615460E46FFF7F2
:200C000051FF48B190F8561041B131462A462346BDE87040FFF7E4BF042070BD092070BDC6
:200C2000D848C078704700BFD6488078704700BFE348D0E900017047E0B50AA1002001223B
:200C4000002302F0B1FE04200EA1022202230090002002F0A9FE00F015FCBDE88C4000F009
:200C60001DB900BF626F6F746C6F616465722056657273696F6E3A205625642E25640D0AA7
:200C800000000000706572665F636F756E7465722076657273696F6E3A205625642E256432
:200CA0002E25640D0A000000B0B500F0CFF84E4C20780138182844D8DFE800F00D251E4339
:200CC0002B444343435052435D0D434343434343431E363B3F000120607000F0CFFB0146F8
:200CE00042480022002500F07FFD0028E0704FD00320A07018204FE0814800F069FB002841
:200D000052D0022065E00120002102F029FC04205FE0A1680020E070886CB0F5F02F49D93B
:200D200040F60340608053E041F60250608003204FE000F0EBF8002002E000F0E7F80220A6
:200D40002080B0BD294800F0DBFB0228E07038D0E0BB072020700020A070B0BD0B2038E09B
:200D6000A289A168214800F05DFEE07070BB0020A0700C202DE01D4800F010FEE07028BB11
:200D8000002024A12071002002F00EFE192020E06420A57020711620207015A119A2002005
:200DA000BDE8B04002F000BE02F0BEFABDE8B04000F0B0B80D4800F013FCE07030B90620A4
:200DC00007E00A4800F026FBE07020B10320A07018202070B0BD18A10020002502F0E4FD6F
:200DE0000720A570F5E700BFF8000020DA53000825733A20737465702031202121210D0A36
:200E000000000000426F6F746C6F616465725F4C6F6F70005B6462675D4669726D77617211
:200E2000652055706461746520537563636573732121210A000000005B6462675D65726147
:200E40007365206F7665720A0000000010B50C4C04F1080000F012F928B100200021BDE800
:200E6000104002F097BBA188064802F093FB20B1A28805A1002002F097FD0020A08010BD93
:200E8000080100208C170020756172742072656376206C656E3A2025640D0A00BCB5534C71
:200EA00040F21540084A0221009004F10800231D00F0D9F80548064A064B0021002502F082
:200EC000A3FC2580BCBD00BF8C170020A14B0008A54700086D490008094872B6094B0168F7
:200EE00042681A6081F30888002181F314880649BFF36F8F0860186862B68047FEE700BF2F
:200F0000008000080830002008ED00E0374800210180704701F028BA11B11A4BC3E902128A
:200F200001380B281CD80FF20601DFE800F008060B0E1106141A0624060612480EE011484F
:200F400001210CE00F48052119E00E480A2116E00C480D2101E00B48032101700021817039
:200F60007047084803210DA201700021817006A1002002F019BD0348002181701621017080
:200F8000704700BFF800002025733A2074696D656F75742121210D0A00000000426F6F74BC
:200FA0006C6F616465725F536574436F6D6D53746174757300000000014AC2E90001704771
:200FC0000000002002A1002002F0EEFCFEE700BF4275734661756C745F48616E646C65726B
:200FE0000A0000000148007AFFF7D5BC08010020014800F02FBE00BFB0300020034890F8BC
:20100000571011B1C06B00F025BE70472000002010B501686FF00F02182308A452FA81F26E
:20102000B2FBF3F3E35C40F2FF34A1435F2A88BF0431C0E91613084610BD00BF00061016B8
:2010400000061016B0B50468806825684028084625F480252560636008BF1046A06008BF7E
:201060000A46E260B0BD10B500F1040C029C0170ACE81C00BDE8104000F02AB870B50446B6
:2010800000F048F808B1012416E00CA10020002602F08AFC0DA5A0680088864207D2606836
:2010A0002946825D002002F07FFC0136F3E706A10020002402F078FC204670BD5B646267D8
:2010C0005D52583C2D3A00000A000000257800001CB504460078FFF78FFC20782146FFF7B6
:2010E000BBFCD4E90112A3892078FFF76CFC39484FF40071002201F08BF801200449642288
:20110000012300900F480430FFF716FC1CBD00BF1D4B0008B0B50B4D04462878012802BFEF
:2011200000202870B0BD2078FFF786FC38B9043521462846FFF71EFC2846FFF724FC0820BF
:20114000B0BD00BFB80100202DE9F0410C4680460EA100201546002602F026FC0EA7AE4222
:2011600006D8A25D0020394602F01EFC0136F6E70BA1002002F018FC98F80000AAB22146AE
:201180004FF6FF73BDE8F041FFF735BD5B6462675D54582D3E3A00002025782000000000C7
:2011A000200A0000F8B50B4F14460D4606464FF400710122384601F02BF83046294622464F
:2011C000FFF7C2FF38464FF400710022BDE8F84001F01EB800040240704772B6FEE7000056
:2011E0004B4A0329136823F4407313604FF4407338BF0B02116819431160116821F0780133
:201200001160116841EAC00040F002001060106840F48030106070471348016889050FD59E
:20122000016821F400710160016841F400610160016821F400610160016841F4007101604E
:20124000016849050FD5016821F480610160016841F480510160016821F48051016001684A
:2012600041F4806101607047003C024028490A6822F440720A600A6842F004020A600A6827
:2012800042EA002040F4803008607047204A136823F44073136013681360136843F001033D
:2012A00013600170704700BF10B519490C6824F440740C600C6844F440740C600C6844F08D
:2012C00001040C600260BFF36F8F436010BD00BF0F4A136823F440731360136843F48073A6
:2012E0001360136843F0010313600180704700BF074A136823F440731360136843F4007331
:201300001360136843F0010313600160704700BF103C02402D480168C90606D52A49CA69A2
:2013200042F01002CA61102101600168890606D52549CA6942F00802CA61202101600168C6
:20134000490606D52049CA6942F00402CA61402101600168090606D51B49CA6942F0020282
:20136000CA61802101600168890706D51649CA6942F02002CA61022101607047F8B5044629
:2013800011480021114EC16100F048FF0546671C3068C00309D5002FFAD024B100F03EFF19
:2013A000401BA042F4D90320F8BD3068C0071CBF01203060306810F0F20F04BF0020F8BD2F
:2013C000FFF7A8FF0120F8BD003200200C3C0240B0B5C5690446C21D06A100202B4602F0D8
:2013E000E3FA414885F0AA316040084318BF0F20B0BD00BF3078252E38582061646472656F
:20140000737320646174613A203078252E38580D0A000000B0B50446FFF730FA50B1C26836
:2014200000210025FFF724FAB0F1FF3F09DC0D2506A101E0044906250BA20020234602F034
:20144000B3FA2846B0BD00BF1554000825733A20257320706172742065726173652066615C
:20146000696C65642E0D0A00464D5F45726173654669726D7761726500000000A848406DCD
:20148000704700BF70B51549134A0020B0F5807F0ED0082304463BB182EA5405E60708BF7A
:2014A0006508013B2C46F6E741F820400130EDE70B4C0C490C4A4FF4F02304F11000FFF743
:2014C000EDF9A26909A10020002502F06DFAE56065602570258170BD2083B8ED8C1300205A
:2014E00020010020DA5300080080000861707020616464723A203078252E38580D0A0000F6
:201500002DE9F0418046FFF7B9F940B3274F054600264FF48054E868B0422AD9801B3146CE
:201520003A46B0F5805F38BF0446A3B22846FFF7CBF9002825D40021B1F5806F05D057F8EE
:20154000212001310132F7D001E00644E3E7164A17A10020434602F027FA022506E0124AEC
:201560001AA10020434602F01FFA06252846BDE8F0810D4A07A100204346002502F014FA80
:20158000F4E71149084A0020CB2302F00DFA0725ECE700BF25733A2025732070617274207E
:2015A000656D7074790D0A0041550008041C002025733A2025732070617274206E6F206524
:2015C0006D7074790D0A0000ED53000825733A202573206E6F7420666F756E642E0D0A0066
:2015E000FEB54E4F4E4C054600206022F8607860387038812046FEF730FF6079012805D121
:20160000E549494A01F098FE1A251EE02846FFF735F960B14349444A064600202B4602F0B9
:20162000C3F920684149884207D016250DE0D9493D4A01F081FE062507E0F068E16C814280
:2016400002D8A16C814202D908252846FEBD4FF0FF3021465C2203F029F8E36DC043834230
:2016600053D13E493E4E002022460025B047A079E17922796379CDE900013A490020B04754
:20168000A07AE17A227A637ACDE9000136490020B047A07EE17E227E637ECDE900013349DE
:2016A0000020B047324904F128020020B04704F1380230A10020B047A26C32490020B047AB
:2016C000E26C31490020B047226D30A10020B047626D32A10020B047A26D34A10020B04700
:2016E000E26D36A10020B047E06C0F4A01466FF31F3101EB103042F2107180B2B1FBF0F36D
:2017000033A100207B80B0479FE7074A009008A1002002F049F9092597E700BF20010020D3
:20172000A41B0020DA540008E854000866706B0025733A20686561642063726320766572C6
:20174000696679206661696C65642E2028252E3858202D20252E3858290D0A00A2540008D5
:20176000A93900082E540008445400085F540008AD540008706172745F6E616D653A20255B
:20178000730D0A008E5400087A54000874696D657374616D703A2025640D0A007261775F88
:2017A0006372633A20252E38580D0A00706B675F6372633A20252E38580D0A0068656164DE
:2017C0005F6372633A20252E38580D0A0000000025733A2070726F677265737320756E694B
:2017E000743A2025640D0A002DE9FE4F494E83467079012806D16849554A01F09DFD1A20BA
:20180000BDE8FE8F0C46444958460822FEF7DAFD81465846FFF732F8002855D082463FA1A9
:20182000002060220294002702F0BEF80FF208183FA50024062F0FD0102C06D0325D0020A3
:20184000294602F0B1F80134F6E70020414602F0ABF810360137ECE73D4A38A100205B46BE
:2018600002F0A2F82B48B9F1000F00F14C0108BF00F148010F68002036A13A4602F094F805
:20188000DFF8ACB24FF480584FF0FF35A74222D9B9F1000F21465A4618BF6031381BB0F581
:2018A000805F38BF80461FFA88F35046FFF70CF8B0F1FF3F23DD064628465946324602F0C6
:2018C000F5FE05463444E1E73249214A01F034FD0620BDE8FE8F029BE843984204BF0020A5
:2018E000BDE8FE8F1A4A00901EA1002002F05CF80C20B9F1000F08BF0B20BDE8FE8F244927
:20190000134A00204FF4C57302F04EF80A20BDE8FE8F00BFA41B0020DA53000866706B2007
:2019200073697A653A20256420627974650D0A00252E3258200000000D0A000025733A2018
:2019400070617274206E616D652025730D0A00002F550008706B675F73697A652025640DA2
:201960000A00000025733A20626F64792063726320766572696679206661696C65642E20DD
:2019800028252E3858202D20252E3858290D0A00ED53000804540008BF540008B0B5FEF78F
:2019A0006DFF98B1114D00212023002405F12402FEF790FFB0F1FF3F0EDD42F21070EC6022
:2019C0006C602C702C8100F0C3F80DE00E4A0FA101F0B2FC062407E00B4A05A1002040F255
:2019E000E31301F0E1FF0E242046B0BD2001002025733A207772697465206572726F722053
:201A0000282564292E0D0A001A55000825733A206E6F7420666F756E6420706172742E0D9F
:201A20000A0000002DE9F047154689460746FEF725FF78B13A493B4A804600203B464FF0E8
:201A4000000A01F0B1FF384FFC885CB1BAEB143F11D025E03D49334A00203B4601F0A4FFAD
:201A600006245AE03149F868C96C0E1ABAEB163F01D13E8100E03E892D4849462A462044C1
:201A8000FEF7EBFC2C443004FC8005D0B0B2A1B2814205D2002440E0A0B2B0F5805FF9D340
:201AA000387810B1F968224D0FE021480021202905D0435C7A18013182F82430F7E72021FE
:201AC000203C00F12005F960FC80A3B240462A46FEF700FF17A10020002401F065FF18A671
:201AE000152C07D02B5D00203146224601F05CFF0134F5E714A10020002401F055FF01208B
:201B0000F9683870F888FC800844B988F86078880844B88080B200F01BF82046BDE8F087A0
:201B2000DA540008FF54000820010020A41B0020041C00205B6462675D7061636B3A0000F6
:201B400025643A25782000000A0000001554000810B50A4C4FF4FA71B0FBF1F06178002933
:201B600018BF50302071FFF771F9237904A109A20020BDE8104001F017BF00BFF80000207E
:201B800025733A2070726F67726573733A2025640D0A00004669726D776172655F4F706524
:201BA0007261746543616C6C6261636B0000000070B5866D044600F031FB054694F83500E2
:201BC00002281ED12068216C026822F016020260426922F08002426109B9A16C19B10168FD
:201BE00021F008010160016821F0010101600068C0070AD000F012FB401B05280FD8206890
:201C0000F5E78020606501200EE0E06D3F2101FA00F0B060012084F83500002004E02020B6
:201C20006065032084F83500002184F8341070BD90F83510022909D1052180F835100068E0
:201C4000016821F001010160002070478021416501207047F8B504460020544A0821009043
:201C6000D4E9166015683768814039420CD0226813685B0708D5136823F004031360B160A0
:201C8000616D41F00101616501218140394208D022685269120604D5B160616D41F00201FE
:201CA000616504218140394208D022681268920704D5B160616D41F00401616510218140E2
:201CC000394217D020680268120713D5B16002680168520306D4C90506D4016821F0080171
:201CE000016001E0080301D4216C00E0A16C09B120468847E16D202000FA01F23A4233D05F
:201D000020680368DB062FD5B26094F835300268052B15D122F016020260426922F080029D
:201D20004261226C0AB9A26C1AB1026822F0080202603F208840B06001F0E6FA216D2FE049
:201D40000168520308D4C9050AD4016821F01001016001F0D9FA03E0080301D4616C00E01D
:201D6000E16B09B120468847606DF0B1606DC00715D005214FF4165084F83510B5FBF0F021
:201D800021680A6822F001020A60009A01328242009202D80A68D207F7D101F0B5FAE16CCC
:201DA00019B12046BDE8F8400847F8BD180000202DE9F041044600F031FAACB10546022064
:201DC00084F835000020216884F83400086820F0010008600868C00709D000F01FFA401B9C
:201DE000052839D82168F5E70120BDE8F0810868271D304AE8CF00EA020ED4E9050CD4E99F
:201E0000072843EA0E032B4333433B431843636A40EA0C00104340EA0802042B04D1D4E94D
:201E20000B05104340EA05020A60042B486920F0070040EA03022CD1D4E90A63324343B3EC
:201E4000BCF5005F0CD0BCF1000F18D1022E19D0012E0ED0002E14E003252027032024E013
:201E6000032E16D8012540270120DFE806F01E0B1E02A3F1C070B0FA80F0400904E0032E53
:201E800003D306D1C3F3006018B10125402701200BE020464A61FFF7BBF8E16D3F2200278D
:201EA000012502FA01F181600020676584F83550BDE8F0813F8010F0B0B501F076FA28D0AD
:201EC0000120A56D84F8340094F8350001281DD1022084F83500002060652046FFF7B2F889
:201EE000E26D3F232068216C03FA02F2AA60026842F01602026019B1016841F0080101603D
:201F0000016841F0010101600020B0BD002084F834000220B0BD00002DE9F843DFF814811B
:201F2000054698F81800012801D1022638E00120894688F8180001F0E3F9064668BB4FF070
:201F4000FF303D4CC9F80000286801280AD1287CFFF78CF901F0D4F90646206820F00400AF
:201F6000206018E0A8680746E968084487420ED2297C3846FFF734F901F0C2F90646206880
:201F800020F07A00206026B9A8680137ECE7002601E0C9F80070FFF73FF9002088F818001F
:201FA0003046BDE8F88300BF2348016841F0004101600020704700BF2DE9F041DFF874807D
:201FC000074698F81800012804BF0220BDE8F08101201E4614460D4688F818004CF2503060
:201FE000FFF7CCF908BB022F07D0012F0AD077B9E1B22846FFF74AF90EE028462146FFF72E
:2020000077F909E0A1B22846FFF762F904E0284622463346FFF748F94CF25030FFF7AEF990
:2020200005490A6822F001020A60002188F81810BDE8F08100320020103C02400648C1682B
:20204000B1F1FF3FC4BF002070470449016004490160C068C00F7047043C024023016745EA
:20206000AB89EFCD2DE9FC4F634A08244FF0010B4FF000094FF0000A9042604A08BF0724EC
:2020800002444FEAB223072B38BF4FEAB22400940023202B08BFBDE8FC8F0F680BFA0AF63F
:2020A000374200F0A2804F6807F00308A8F10104012C18D8032285684FEA4A0E02FA03F48B
:2020C00025EA040CCD689D4045EA0C058560C7F3001505FA0AFC4568B54345EA0C056FEA98
:2020E000040C45600BE003249E469C406FEA040CB8F1030F03D19E464FF0030820E0C46807
:202100008D6804EA0C0405FA0EF52C43B8F1020FC46015D109F01C040F2202FA04F86FF0F6
:20212000030202EA5A0707443D6A25EA08080D6905FA04F444EA08043C624F6807F003083E
:20214000056808FA0EF405EA0C052C4317F4403F04604AD000222AF0030701922A4A1468CE
:2021600044F48044146014680F2204F48044019409F00C0402FA04FC214A019D96461744AC
:20218000224ABD589046009A25EA0C0502FA04F42C4347F80840DEF808404F68FA0244EA45
:2021A0000605184A58BF24EA0605CEF80850BD029446126842EA060458BF22EA0604CCF82A
:2021C0000040BD03DEF8042042EA060458BF22EA0604CEF80440FD03DEF8002042EA06046C
:2021E00058BF22EA0604CEF8004009F1040902330AF1010A4DE700BF001C02400000FEBF5C
:20220000003C01400C3C01404438024008FCFFFF002A08BF090481617047000005480068AC
:20222000704700BF1F48034900780A6810440860704700BF2032002080B50B48016841F4C1
:2022400000710160016841F480610160016841F480710160032000F077F8012000F006F84B
:2022600000F022F8002080BD003C024070B50D4E04464FF47A713078B1FBF0F08A49096809
:20228000B1FBF0F000F0D8FA01250F2C08D838B94FF0FF3021460022002500F02FF87460B7
:2022A000284670BD0800002082B000200B4901904A6842F480424A604A6802F480420192D3
:2022C000019A0090086840F080500860086800F080500090009802B0704700BF40380240C1
:2022E000002808D400F01F010122400902FA01F1014A42F82010704700E100E0F0B5184B3B
:202300004FF0FF361C68C4F30224E51E84F0070438BF002506FA05F7BA43042C28BF042412
:2023200006FA04F4A14300F00F04A940043C11432344044A09010C33B0F1FF3FC8BF831842
:202340001970F0BD00E400E005494FF6FF030A681A4060F30A22034810430860704700BF27
:202360000CED00E00000FA0502F07AFC2DE9F041002857D03F4B04468846D3F8000400F026
:202380000700884204D283F8008400F0B3FF49D12068810711D5410703D5996841F4E0515E
:2023A0009960010703D5996841F460419960A1689A6822F0F00211439960C0072BD100F065
:2023C00099FF04D983F8008400F094FF2AD12068410705D5E1689A6822F4E0521143996081
:2023E000000706D52069996821F4604141EAC00098601C4600F05EF8A1681F4AC1F30311F6
:20240000515CC840284908601C480068FFF72EFF0020BDE8F0816068811E022905D219681F
:20242000890107D40120BDE8F08101281DD119688903F7D599681D4621F003010843986054
:20244000FFF7ECFE064641F288376068A9682B4601F00C01B1EB800FB1D0FFF7DFFE801BFC
:20246000B842F2D90320BDE8F08119688907D9D5E0E700BF00380240B25300080C00002066
:2024800009480A490A4A00680968C1F38221515CC840704704480549054A00680968C1F332
:2024A0004231515CC84070471800002008380240C253000810B5134C606800F00C0008284E
:2024C00004D0042814BF1048104810BD226820680023400202F03F020C485CBF42F200401F
:2024E000C0F2F4002168C1F38811A0FB0101FDF7C5FE21680222C1F3014102EB4101B0FB8F
:20250000F1F010BD043802400024F40040787D012DE9FC4100285FD004460078C24EC007FE
:202520000BD0B06800F00C00042840F08E803068800302D5606800284ED02078800718D536
:20254000B06810F00C0F07D000F06DFF40F095807068400200F191803068800702D5E06876
:20256000012839D12069316821F0F80141EAC00030602078000732D42078400742D4A769D7
:202580003FB300F050FF40F0A980012F24D0E169706800F480028A421ED1216A00F03F027E
:2025A0008A4219D147F6C071626A0140B1EB821F12D1A16A9F4A02EBC13100F440326FF32F
:2025C0000F018A4208D1E16A00F07060B0EB016F02D10020BDE8FC810120BDE8FC8161690E
:2025E000924800296AD00121C0F8801EFFF716FE0546706F8007BFD4FFF710FE401B02284F
:20260000F7D9C9E0306C10F080580AD100200190306C40F080503064306C00F08050019024
:202620000198834F3868C0053AD4386840F480703860FFF7F3FD05463868C00530D4FFF7D0
:20264000EDFD401B0228F7D9A6E000F0ECFE03D1706840023FF56BAF6068B0F5803F07D09C
:20266000B0F5A02F40F08280306840F480203060306840F48030306082E0E06800284CD0BE
:202680006A4801210160FFF7C9FD0546306880073FF568AFFFF7C2FD401B0228F6D97BE030
:2026A000A068012805D0052848D1306F40F004003067306F40F00100306749E00021C0F8FB
:2026C000801EFFF7ABFD0546706F80077FF554AFFFF7A4FD401B0228F6D95DE053490020B2
:2026E00088460866FFF79AFD0546022F0AD147463068800153D5FFF791FD411B03200229BE
:20270000F6D967E7306880017FF563AFFFF786FD411B03200229F5D95CE7444800210160BB
:20272000FFF77CFD0546306880077FF522AFFFF775FD411B03200229F5D94BE7316F0028A1
:2027400021F001013167316F21F00401316744D0FFF764FD054641F28837306F80074BD493
:20276000FFF75CFD401BB842F7D915E03168002821F480313160316821F48021316044D0E4
:20278000FFF74CFD0546306880033FF5D6AEFFF745FD401B6428F6D90320BDE8FC811C3459
:2027A0001FCC0843234940EA821001EBC33140EA04606FF30F010843706001203866FFF70B
:2027C0002DFD0446306880013FF503AFFFF726FD011B03200229F5D9FCE6FFF71FFD0546F6
:2027E00041F28837306F800706D5FFF717FD411B0320B942F6D9EDE6B8F1000F7FF4BFAE28
:20280000306C20F080503064B9E6FFF707FD0546306880037FF591AEFFF700FD411B032084
:202820006429F5D9D6E600BF0038024000004742007000400000FFFF411E0020B0EB116F77
:202840001CBF01207047044AF023516003490B70072190601160704710E000E023ED00E0EC
:2028600010B590F83C300222012B2CD080F83D2002680B68546824F070041C439368B2F160
:20288000804F546014D0CB4CA24211D0CA4CA2420ED0CA4CA2420BD0C94CA24208D0C94C62
:2028A000A24205D0C84CA24202D0C84CA24204D1496823F08003194391600022012180F878
:2028C0003C2080F83D10104610BD00BF70470000FEB50168B748814216D100210B4A00F50E
:2028E00000300091136843F002031360126802F0020200920222CDE903110592CDE9012291
:20290000009901A9FFF7AEFB06B080BD30380240B0B500F00BFE04BF0220B0BD00F0D2FDC9
:2029200037D8DFE801F0020A12222068294601F027FB206850F8181F0EE02068294601F0A9
:202940004FFB206850F8181F16E02068294601F079FB206850F81C1F41F0080101600168C5
:2029600021F00401016029690FE02068294601F09BFB206850F81C1F41F400610160016876
:2029800021F480610160296909020268114301600020002184F83C10B0BD58B110B500F0F0
:2029A0008CFD03D100F05EFD00F006F800F0C9FD00F0E4BC012070472DE9FC41044600685E
:2029C0007C49884201D0BDE8FC8100211848194D4FF4807C4FF480674FF020634FF4005EC2
:2029E0004FF400680191026800F5205642F0020202604FF48032C5E90063C5F81CC0C5E9E0
:202A000008214022C5E9022105F1100181E88041006800F00200019001982846FFF7C8F980
:202A200008B1FEF7DAFB25622563AC63BDE8FC8140380240B03000207047704770B50D4633
:202A4000044641B1082D0DD0042D14BF04F1410004F13F0008E094F83E00022807D004F112
:202A60003E0011E004F140000078022801D1022070BD082D06D0042D14BF04F1410004F1F5
:202A80003F0001E004F140000078012862D1002A60D0002B5ED0022045B1082D09D0042D03
:202AA00014BF84F8410084F83F0004E084F83E0001E084F840004FEAB50003284AD8DFE88E
:202AC00000F002381624606A374E2168C663374E606A0664364E606AC66401F134061146DD
:202AE000606A00F0D8FCA8BB4FF4007136E0E06A2D4E2168C6632D4EE06A06642C4E00F00B
:202B0000C1FC38BB4FF4006128E0206B264E2168C663264E206B0664254E206BC66401F125
:202B200040061146206B00F0B6FC98B94FF4805114E0A06A1C4E2168C6631C4EA06A06646E
:202B40001B4EA06AC66401F138061146A06A00F0A2FC08B1012070BD4FF4806100F09EFC04
:202B600000F0A7FC19D01349884216D01249884213D01249884210D0114988420DD0114965
:202B8000884205D01049884207D01049884207D1416C0E4A00F0DCFC02D100F038FC01D00C
:202BA00000F027FC002070BD9B3E0008FB3E00082F3F00080004004000080040000C004045
:202BC0000018004000000140004001400004014070470000BCB5044690F84830406C11A1C6
:202BE00016A200250090002000F0DEFE606C78B10195206801680191416801910199E16B4D
:202C000039B1B4F86020E16D204600F0BBF904E0BCBDC16841F02001C160BDE8BC40FEF7B7
:202C2000E1B900BF5B25735D20554152542564206572726F723A2025640D0A0048414C5F8E
:202C4000554152545F4572726F7243616C6C6261636B00007CB5044600680268C16845699E
:202C600013073FD001F4907605F0010576193DD0D60705D0CE0503D5666C46F00106666463
:202C8000560704D51DB1666C46F002066664960704D51DB1666C46F004066664002B07D52F
:202CA00001F020035B1903D0636C43F008036364636C002B00F0EF80920605D5890603D5B3
:202CC000204601F041FB20684069616C00F0400001F00801401847D12046FFF77BFF0020D3
:202CE0006064D8E0930601D58B0648D4236B012B03D1D30601D5CB0646D4130601D50B0614
:202D000011D4520640F1C780490640F1C480C16821F04001C160202084F841002046BDE896
:202D20007C4000F0F5B994F84110212940F0B380A168B1F5805F03D12169002900F0AC807E
:202D4000216A4A1C226209784160E18C0139E184090440F0A080C16821F08001C160C1686E
:202D600041F04001C1607CBD00F05AFB2068416949064ED500F0CFFA3ED02068FAE7204608
:202D8000BDE87C4001F0E0BA0021019101680191416801910199416949063FD4E18DA28D1B
:202DA000E38D002B77D0511A0A0474D050E8030F226820F4907042E803030BB12068F5E73C
:202DC000206850E8050F226820F0010042E80503002BF5D1202084F8420000202063206838
:202DE00050E8030F226820F0100042E80303002BF5D1022089B248E0E06B50B12A49016514
:202E0000FEF716FF002846D0E06B016DBDE87C4008472046BDE87C40FFF7DCBEE26BA38D2D
:202E200011684D68A9B249B3994227D2E585D169B1F5807F1BD050E8030F216820F480702E
:202E400000F048FB01D02068F5E700F0B3FAFCD1206800F060FAFBD1202084F842000020E4
:202E6000206300F0E5FAFCD1E06BFEF7A1FE02206063A08DE18D401A81B207E08B420AD1B8
:202E8000D069B0F5807F06D1022060632046BDE87C40FFF79DBE7CBD216A31F8022B6FF305
:202EA0005F222162426050E7BD41000890B110B5044690F8410008B900F03DFB00F0D7FA6C
:202EC0002068016921F490410161416921F02A0100F019BB0120704770B586B00446016828
:202EE000F848814247D10026CC4900F5744001964A6942F010024A614A6902F01002019250
:202F0000019A00960A6842F002020A60096801F002010091072105910321CDE90361022159
:202F20000291C0210191009901A9FFF79BF8134D4FF48030124B4FF480614FF00062C5E99C
:202F400008064FF48070C5E90032C5E90266C5E90416C5E906602846FEF72AFF08B1FEF724
:202F60003CF9252002210022AC63E563FFF7C6F92520FFF7B5F906B070BD00BF103100209A
:202F80004064024090F84230202B1CBF0220704721B11AB10023036301F0C0BA01207047E9
:202FA0005E49C96801B10847704700BF5B49C96801B10847704700BF2DE9F843044690F853
:202FC000410020281CBF0220BDE8F8830E46B9B11746AAB14FF0000921201D46C4F8449059
:202FE00084F84100FFF71AF9E7848046A784A068B0F5805F09D1206928B14FF0000904E0BB
:203000000120BDE8F883B1460026E08CA8B12046802100F001FAE0B926B116F8010B216888
:20302000486006E039F8021B206800266FF35F214160E08C0138E084E7E72046402100F0F5
:20304000EBF9202184F84110002818BF0320BDE8F883202084F841000320BDE8F8830000FC
:2030600070B5044690F8410020281CBF022070BDD9B11346CAB10022E384154E6264A3846F
:203080002162A06B2568C0E91362124A124EC0E90F62212284F841202A1DFEF70DFF30B1D8
:2030A00010206064202084F84100012070BD20686FF04001016050E8050F216840F08000C3
:2030C00041E805020AB12068F5E7002070BD00BFC7410008DF420008A342000810B5034661
:2030E00090F8410020281CBF022010BD71B16AB100202124DA84586483F8414019629A84A4
:203100001968CA6842F08002CA6010BD012010BD0249096901B10847704700BF14020020F9
:203120007047FEE7E0B500203C4901900A6842F480020A600A6802F480020192019A0090EC
:203140000868002240F4001008600868002100F40010009000980D20FFF7D0F80D20FFF766
:20316000BFF83A2002210022FFF7C8F83A20BDE88C40FFF7B5B800BF2DE9F04786B00027AC
:20318000264800220E2605970097016841F080010160016801F0800100F0A7F841F004011C
:2031A0000160016801F0040100F09FF841F002010160016801F0020100F097F841F0010124
:2031C00001600E21006800F0010000900098144800F5806582462846FFF71AF850464FF491
:2031E000007100224FF40078FFF712F84FF0030901242846CDE90379CDE9016401AE314630
:20320000FEF730FF50463146CDE90379CDE90184FEF728FF06B0BDE8F08700BF30380240B9
:203220000004024080B58AB017488021174B682281610021C0E90031C0E902120161CDE93B
:203240000811CDE90611CDE90411FFF7A6FB08B1FDF7C3FF0C4808A9FFF702FB08B1FDF712
:20326000BCFF00200C220590CDE9020060200190054801A9FFF74CFB08B1FDF7AEFF02480F
:20328000FFF726FB0AB080BD703100200004004010B50B480B4C00210C224FF4E133C0E95D
:2032A0000043C0E90211C0E90412C0E90611FFF7FDFD18B1BDE81040FDF78FBF10BD00BF14
:2032C000B83100200010014002A1002000F06CFBFEE700BF4D656D4D616E6167655F486166
:2032E0006E646C65720A0000FEE700910099009701687047D3F8000400F0070040457047E7
:203300004CF25030FEF73AB8002084F83400012084F83500704750E8050F216820F040008A
:2033200041E80502002A70474FF0AA300021FDF743BE002000F038BB002000F035BB011D2C
:20334000C8F800100168704700210022082301F09DBCD6F80930304601214FF0FF32184757
:20336000417941F0010141717047B2B23888B4F86210E36D40441944FDF76FB8012084F8CC
:20338000460084F83E0084F83F0084F8400084F8410084F8420084F8430084F8440084F840
:2033A000450084F83D00002010BD044690F8340001287047206850E8050F216820F00100CE
:2033C00041E80502002A70470021012301F05EBCD4F80930204601214FF0FF32704701686F
:2033E00051E8051F026821F0010142E80513002B7047016841F001010160704764216FF037
:203400006303B0FBF1F202FB030032237047816801F007010629704742462B4601F0D7B86B
:20342000204600F05FBFB06800F00C0008287047206850E8030F216820F0100041E8030274
:20344000002A704782EA4305B6F1FF3F704700EB4000144601EBC0017047002100220823E4
:2034600001F014BC002084F83C0020467047242084F841002068C16821F40051C1602046F7
:2034800000F0F6BFE06AC66401F13C061146E06A3246FEF711BD3246FEF70EBD2068C26819
:2034A00011430122C160294600F0E8BC3246FCF7D4BF2068B0F1804F7047044690F83D00B5
:2034C000002870470D4601204FEAB201032984F83C00704741E80302002A704704469846DB
:2034E00016460F462878532870470020207710BD846B616A814270470262B8428C68D1F876
:2035000000C0456870474161C16841F40051C16000202021606484F8411084F84210606392
:2035200010BD30462946224601F075BB044690F83C0001287047002084F840002046FFF72A
:20354000CBBC0220211D84F83D00206800F028BC41F40041416440F48061914270470000B5
:2035600002280CD0012811D1B448002101228171817000F8202B00F81C1CFDF704BA097871
:20358000AE48002918BF0121017000D070472030FDF7F2B970B500284DD00D4600294AD02C
:2035A000714C2178002946D02581C4E906000378591E012927D8A17842788A425DD1867837
:2035C00082F0FF018E4261D18026022B08BF4FF4806622B146F00501A94240F0888003304F
:2035E000314601F0B9FB0246E06946F00105C11C8B5D495D41EA0325954268D1A17825894D
:203600000131A17003787E4900202A4600F0CCF9E0690078182846D0022848D004284DD03E
:20362000012874D1A079032868D0002841D10620E07001206AE04C4C2079012814D1E069FD
:203640006669611D0022002300250078B0476079012800F08680032808D0022808D1A0782E
:203660000138A070152002E000257AE01820E070E3680025E01C25716FE0481E90420CD17D
:2036800040A1002000F090F9022560E044A10020334600F089F9042559E034A1002000F012
:2036A00083F9032553E00620E07007202EE0A079C0B104F12000FDF75FF915E0A079022865
:2036C00036D001283ED11520E07002201EE04449002000F069F943A100202A4600F064F947
:2036E000062534E00120A0710620E0700FE035A100202A4600F058F9052528E004F1200006
:20370000FDF73AF94FF4C06060800520A0710120E169236922890025207111F8030B441E38
:20372000E4B2022C4FF0000438BF541FA2B217E04FF4C06060800320A07104F12000FDF74D
:2037400022F9E4E72F49002000F02EF90825152004F8030FD4F80930204601214FF0FF3267
:203760009847284670BD00BFD80100206572726F723A206F6D697373696F6E206672616D5C
:20378000650D0A006572726F723A206475706C6963617465206672616D650D0A000000002C
:2037A0006572726F723A207061636B6574206E756D6265723A20252E325820252E32580D23
:2037C0000A0000006572726F723A205F6465765F72785F6C656E3A2025640D0A00000000DC
:2037E000795500086572726F723A207261772063726331363A20252E34580D0A0000000016
:203800005C5500088E550008F8B50C4D01260027009605F10C0105F120042E700DC120462B
:203820004FF4967200230649FDF786F82046FDF7B0F8AF71AF702E702F71F8BDD80100202C
:20384000514B0008704700002DE9F041554DFFF745FE18BF00F03AFF022C84BF4FF0FF300C
:20386000BDE8F081EFF311804FF0200181F31188069A54B104EB4401002305EBC1010F662F
:203880004E66C1F868800B67CB6604EB440105EBC1014A67BFF35F8F80F311880020BDE828
:2038A000F08100BF7CB53F4D04462878532818BF00F00CFFFF200F2C8DF8060084BF4FF07D
:2038C000FF307CBD1648005D8DF80700EFF311864FF0200181F31188E86A00F003000228E4
:2038E00009D110480DF106010222047005F1180001F05EF90DE01835284600F023FF0228BF
:2039000009D308480DF1060102220470284601F082F9002001E04FF0FF3086F311887CBD4A
:20392000CA530008D20A0020F8B506461D4814460D460078532818BF00F0C8FEEFF3118761
:203940004FF0200181F3118830462246294600F003F887F31188F8BD70B50D461149FFF732
:2039600076FDC86A01F11806022809D001280ED020B9304600F0E6FEA0420ED200240EE091
:20398000304629462246BDE8704001F011B9304600F0D8FEA04238BF0446FFF7C2FD204650
:2039A00070BD00BFD40A002082B0E0B5CDE9042304AA019201AA00F005F8BDE88C4002B07D
:2039C000704700002DE9F04F9BB00F46002102901A904020904600241891179006A81991DC
:2039E000169016AE05923D4615F8011B252907D0002900F02A81304601F052F82F4608E122
:203A0000B81C4FF0000B2978232907D02B2907D02D2907D030290BD1022104E0082102E025
:203A2000042100E001214BEA010B01300135EAE74FF0000A30290AD3392919D80AEB8A0293
:203A400001EB4201A1F1300A10F8011BF2E72E290ED100250178A1F13A0212F10A0F09D3D4
:203A600005EB8502013001EB4201A1F13005F1E701380025471CA1F16300092809D8DFE841
:203A800000F05058C8C8C805C8C8C80517F8011BF1E7A1F17000082812D8DFE800F005BA3F
:203AA000BA1FBA36BABA1600D8F8000010220823FFF745FC082000900020019030462DE063
:203AC00025295ED0582940F0A480D8F800001022FFF735FCCDE900AB30461EE0D8F80000C7
:203AE000011DC8F8001004685F48002C08BF04462178002900F08D80304600F0D1FF1998E2
:203B00000134B0F1FF3FF3DC83E0D8F800000A22FFF715FC3046CDE900AB2B4600F048FFDD
:203B200077E0D8F80000011DC8F800100178304629E0D8F800004FF00109011DC8F8001071
:203B4000D0F80080B8F1000F4046C8F1000148BFC8F1000003910A210A2804D3B0FBF1F011
:203B600009F10109F8E7A94538BFA946BAF1000F0CD0B8F1000F54BF5FEA4B70AAF1010A83
:203B800006E03046252100F08BFF42E04FF0000A1BF00201049100D0BDB15FEACB7014D154
:203BA000BAF1000F11D0AAF10106564538BFD1450BD216A8202100F073FF199CB246002C09
:203BC000F1D5DDF8148016AE23E0002C07D4B8F1000F06D45FEA4B7007D416AE0DE016AE02
:203BE00015E0DDF80C802D2100E02B2116AE304600F056FF1998002809D4049878B930467D
:203C000041460A222B46CDE900AB00F0D1FEDDF81480199CB4F1FF3F3FF7E5AE20E00BF09B
:203C200001002843EBD1BAF1000FE8D0AAF10104544538BFD145E2D23046302100F030FF0A
:203C40001998A2460028F1D5E1E744B1189D25B106A902982A46FFF767FE2C4400E000240D
:203C600020461BB0BDE8F08F55550008704700001B494FF0FF3201F8030FD1F80930084657
:203C80000121184710B5164C01214FF0FF3204F8030FD4F8093020469847FFF799FB984729
:203CA000FFF796FBBDE81040184700BF70B50C4E054606F120042046FCF75EFE06F8035F70
:203CC00001214FF0FF32D6F8093030469847FFF740FBFFF73EFB2046BDE87040FCF753BED7
:203CE000D801002080B50120FCF7FAFDBDE88040FEF798BA70B592B006AC1421201DFCF761
:203D000023FC01A81421FCF71FFC00251E4802260095016841F080510160006800F080505C
:203D20000090009800951948016841F480410160006800F48040009004201096CDE90C6508
:203D400006961190A8200F9008200E9010200A900120099000982046FEF7DAFB08B172B6CC
:203D6000FEE74FF48050CDE90265052105904FF4A05004900F20019001A8FEF7F7FA08B1A4
:203D800072B6FEE712B070BD40380240007000400248016841F470010160704788ED00E0F7
:203DA00070B52C4B0268984234D0B0F1804F0BD0294CA04208D0294CA04205D0CC4CA0427F
:203DC00002D0274CA04203D14C6822F070022243B0F1804F22D0204CA0421FD01F4CA0425F
:203DE0001CD01F4CA04219D01E4CA04216D01E4CA04213D01D4CA04210D0BD4CA0420DD04D
:203E00001B4CA0420AD01B4CA04207D01A4CA04204D007E04C6822F070022243CC6822F475
:203E2000407222430D688E684C699842C662856203D003F58063984201D1096901630168C9
:203E400041F0040101600121416122F080012143016070BD000001400004004000080040B5
:203E6000000C004000180040001C00400020004000400140004801400044014010B501F09D
:203E80001F010123046A8B4002FA01F124EA03030362026A1143016210BD10B5FFF728FB70
:203EA00010D0A16A814214D0E16A814219D0216B81421DD1C06908212177C8B9012084F834
:203EC000410015E0C0690121217788B984F83E100EE0C0690221217750B9012084F83F0007
:203EE00006E0C0690421217710B9012084F840002046FEF7A1FDFFF7F8BA10B5FFF7F8FA02
:203F00000AD0A16A814209D0E16A814208D0216B814207D1082004E0012002E0022000E002
:203F2000042020772046FEF788FDFFF7DEBA10B5FFF7DEFA0CD0A16A81420DD0E16A814230
:203F40000FD0216B814211D0012084F83D0012E0012084F83E000DE0012084F83F000220C0
:203F600008E0012084F84000042003E0012084F84100082020772046FEF7A8FCFFF7B5BA74
:203F8000F0B5036A026A5A4E22F0010223F00203A6F5806702628C68D1F800C04568234358
:203FA0008469B84218BFB04210D1CA6823F00C0322F004021343B84218BFB04206D125F4FB
:203FC0004072D1E905562A4342EA060524F07302456042EA0C028261496841630362F0BDC4
:203FE000F0B5036A026A424E22F01002A6F5806723F02003FFF780FAD0F818E018BFB042DE
:2040000043EA041313D1CA686FF0400423F0C00304EA02121343B84218BFB04207D1D1E920
:20402000052425F4406545EA820242EA84052EF4E642456042EA0C2282614968816303620B
:20404000F0BD00BFF0B5036A026A294E22F48072A6F5806723F40073FFF74EFAD0F81CE0E9
:2040600018BFB04243EA042313D1CA6840F2FF4423F440631202A2431343B84218BFB042CC
:2040800007D1D1E9052425F4405545EA021242EA04152EF07302456042EA0C02C2614968E9
:2040A000C1630362F0BD00BFF0B5D0F820C0036A0F4A40F4806723F4805397420362456808
:2040C0000C688B68C66904D14A6925F4804545EA821526F4E642456042EA0422C261496811
:2040E00001642CF4005141EA03310162F0BD00BF000401402DE9F0470446B0F85400216D56
:204100000988814258D2D4F84C80276DB4F860502046FCF7C3FC2D1AB4F862001FFA85F995
:20412000814542D013D92E1A3888B4F8542010FA86F1914288BF161AEFF3108A72B6FFF72E
:2041400014F93888304438808AF310882DE0B4F860303988B4F854201E1A11FA86F090429C
:2041600088BF561AEFF3108A72B6FFF7FEF838883044388028048AF3108816D03888B4F879
:2041800054202E4600EB0901914288BF161AEFF3108A72B6B2B23888E16D4044FCF75DF915
:2041A0003888304438808AF31088B4F86000814528BF0025A4F86250BDE8F087806B0021AA
:2041C000C185FEF707BD10B5846B2068416994F84120212A08D111F0800105D00020E0840E
:2041E000204600F0A3F82068406994F84210222906D110F0400003D00020E085FFF710F906
:20420000606C40F0100060642046BDE81040FEF7E1BC0168806B0968C9052CD40021C185E7
:20422000016851E8031F026821F4807142E80313002BF5D14DF808EDFFF7D1F85DF808EBD8
:20424000F8D1016851E8051F026821F0400142E80513002BF5D1202180F84210016B01293F
:2042600009D1016851E8031F026821F0100142E80313002BF5D100214163016B012918BFB1
:20428000FEF78EBE818DFEF7A3BC806B01214163016B012918BFFEF789BE818D4908FEF7CD
:2042A00097BC0168806B0968C90548BFFEF730BF0021C184016851E8051F026821F0800105
:2042C00042E80513002BF5D1016851E8031F026841F0400142E80313002BF5D17047806B38
:2042E000FEF71EBF016851E8031F026821F4907142E80313002BF5D14DF808EDFFF76FF8E0
:204300005DF808EBF8D1016B012909D1016851E8031F026821F0100142E80313002BF5D19B
:20432000202180F84210002101637047016851E8031F026821F0C00142E80313002BF5D105
:20434000202180F84110704781B090F84210222920D18368B3F5805F08D10169002949D05E
:2043600000F128010A6803685B680AE0014651F8282F13B90369002BF5D003685B6803F069
:204380007F0313700A6801320A60C18D0139C185090401D001B070470168CA6822F0200226
:2043A000CA60CA6822F48072CA604A6922F001024A61202280F8422000224263036B012B7F
:2043C00021D1026351E8031F026821F0100142E803130168002BF5D10A68D20606D50022BE
:2043E00000920A680092496800910099818D01B0FEF7EEBB0168826A49686FF35F2122F8ED
:20440000021B8262C1E701B0FEF7CABD10B5044690F8570088B10121EFF3108072B684F867
:20442000581080F31088E06B10B12046FFF762FE2046BDE81040FCF7D1BB10BD10B504468B
:2044400090F8570098B12046FCF738FBE16C226D12888854206D018801310180B4F854008D
:20446000216D0988814202D1206D0021018010BDB0B50446006804F108030ECB056925F414
:20448000405519432A4349F20C650261C26863691943E369AA4319431143C1604169A2699E
:2044A00021F44071114341611B4940F48060884202D1FDF7EFFF01E0FDF7E2FFE26919210E
:2044C0006368A0FB0101B2F5004F10D15A00DB0FFBF7D4FEFEF792FF03EBC000B0FBF1F0D5
:2044E0004FF4F87101EA400100F007000DE09A009B0FFBF7C3FEFEF781FF03EB0010B0FBEB
:20450000F1F000F0F00100F00F0001EB0211084421688860B0BD00BF00140140F8B5134697
:2045200000250446214E0A46224F456483858162222084F84200E06B2168C0E913651C4EE9
:204540000431C0E90F76FDF7B7FC30B110206064202084F842000120F8BD00952068016822
:204560000091416800910099216949B150E8030F216840F48070FEF7ADFF01D02068F5E786
:20458000206850E8050F216840F0010041E80502002AF5D1206850E8050F216840F04000A0
:2045A00041E80502002AF5D10020F8BDC74100088B4200081342000810B50446FCF719FBAE
:2045C000A16E19B12046BDE81040084710BD2DE9FC41044600681D4690460F465E1C016815
:2045E0003940B94224D0002EF9D0FDF717FEA0EB08010320A94219D8C5B12068C168490749
:20460000EDD5402FEBD0802FE9D001680907E6D50025019501680191406801900198FEF795
:20462000FFFE082084F8405060640120BDE8FC810020BDE8FC81000081B012480068F8B164
:204640000168890609D40168C90602D5C168C90609D40C4801B0FEF7FDBA6FF0200101600F
:204660000948416808E000210091016800914068009000980448816811B1024801B008479B
:2046800001B07047200000201402002002A10020FFF78AF9FEE700BF55736167654661754B
:2046A0006C745F48616E646C65720A0010B5064B4AB111F8014B013A4440E4B253F8244089
:2046C00084EA1020F4E710BD8C13002010B5144CA8212046FBF738FF032013492061606197
:2046E0001048A061E1614FF4006121620021A1626162E16220660D4860661020A06621676F
:20470000E16661670F200AA1BFF35F8F421C04D00A5C013804F8012BF8E7BFF35F8F10BDCB
:20472000D40A00204C5500088C0B00207C0B0020000000000000545452205245474745539D
:2047400000000000C268016991428FBFD043D243114480680844704700F17841B1F5803F2D
:204760003CBF880B704740F60101B1EB104F04BF042070470A4A02F1006101408818B0F5F5
:20478000402F3EBF052101EB50407047034800F550220020914208BF0B20704700000108FD
:2047A0000000FEF7F8B515460E460446012000210022FCF7B1FB601E02280ED3042C2ED0A4
:2047C000182C13D0502C2FD0552C15D0602C34D11020FFF76BFA0C2069E0534F012C2ED172
:2047E000B87860B30020B870052060E04E4800210180817007205AE03448FCF7E9FD0446A0
:2048000033A039A1002C08BF0146FEF792FD5220002C08BF5120FFF72BFA0B2047E0424860
:2048200001218170062042E02848FCF7D1FD90B334A1FEF77EFD522036E0092037E03B4C15
:2048400031462A46FD802046FBF707FE38A100202A46FFF7A9F8387828B1787868B3FA8881
:204860003249042025E0012038702046FBF78BFD054635A100202246FFF796F8281901304C
:20488000FBF774FD024634A10020FFF78DF8FA88022021460DE020A1FEF74BFD0A200021BC
:2048A0000022FCF739FB5120FFF7ECF90A2000210022BDE8F840FCF72FBB01202A497870C0
:2048C000FEF737FD194903206022F2E70080000850505F434D445F494D4147455F43484583
:2048E000434B3A41434B0A0050505F434D445F494D4147455F434845434B3A4E41434B0A64
:204900000000000050505F434D445F4A4D503A4E41434B0A0000000050505F434D445F4AA1
:204920004D503A41434B0A0008010020042C00205F66775F7375625F706B675F6C656E3AF0
:204940002025640D0A00000066696C65206E616D653A2025730D0A0066696C652073697A17
:20496000653A2025640D0A00DE53000810B50C46FCF75AF9207000F0FE00022818BF10BDF6
:20498000FCF74EF9024603A10020BDE81040FFF70BB800BF636D645F6578655F6572725F88
:2049A000636F64653A20252E32580D0A000000002DE9F84F8146DDE90AB01F4615460E4656
:2049C0004FF0010AA94204D3B1FBF5F10AF1010AF8E7BA4538BFBA4600F00104BBF1000FAE
:2049E0001AD0CCB94FF02008800748BF4FF030082020002F18BF8046BBF1000F0CD0DA451A
:204A00000AD24846414600F04BF8D9F80C00ABF1010BB0F1FF3FEFDCD9F80C00002834D436
:204A200000940124022F01D3013F03E0B6FBF4F0A84201D36C43F5E70FF25408B6FBF4F7BE
:204A4000484618F8071000F02BF8D9F80C00002806D4B4FBF5F007FB1466AC420446EDD2A8
:204A6000009890B1BBF1000F0FD0ABF101045C4538BFDA4509D24846202100F011F8D9F8F7
:204A80000C00A346B0F1FF3FEFDCBDE8F88F00BF30313233343536373839414243444546EA
:204AA00010B5D0E901230446581C904201D9184606E02268D154A060E16862680131E16071
:204AC00090420CD121682069FEF72EFFA16888421EBF4FF0FF30E06010BD0020A06010BDDB
:204AE00080B5FCF7A5F880F0AA30084310D1FCF79FF880F0AA30084306D100200021FCF751
:204B00005BFAFCF7E9F903E0FEF70EFCFCF702FA00200021BDE88040FCF74EBA034801218C
:204B2000017003A10020FEF73FBF00BFB80100206672616D652064657465637420636C6FB3
:204B4000636B2074696D65207570210D0A000000034801214FF0FF32C3680248184700BF0B
:204B6000D80100201C0000200548007800F0CCBB03481821017003A10020FEF715BF00BF83
:204B8000900200205B6462675D626F6F74206C6564206C6F6F702073746172740A00000043
:204BA0000A46014601480830FCF7FCBA080100202DE9F843C76814460D4680464FF00009D0
:204BC000D8F81000F943B84203D9D8F80820014403E0D8F8082008448118D8F80400D61B21
:204BE000B14238BF0E462946A64228BF26463844FEF75CFCD8F80810F0193544B144471A44
:204C000018BF0746A41BBFF35F8FC8F80C70D7D14846BDE8F8832DE9F04104468846406878
:204C20001546D4E902168F1B3044974207D941462A46FBF712FC3544BFF35F8F0CE04146EA
:204C40003A46FBF70AFCED1B606808EB07012A46FBF703FCBFF35F8FE560BDE8F0810000B5
:204C60000648BFF34F8F064A016801F4E06111430160BFF34F8F00BFFDE700BF0CED00E0E7
:204C80000400FA05012000F0F1B870472DE9F04F274F03EB020C4FEA10494FEA102A4FF095
:204CA000000E4FF080084FF0220BBEF1180F08BFBDE8F08F0EF00703934228BF9C4513D862
:204CC0000023082B2FD001FA03F507EB43042D06A4F8D0B3A4F8C0B34FF0460558BF22250A
:204CE000A4F8E0530133ECE70023082B1BD028FA03F4462507EB4306044208BF2225A6F8EC
:204D0000E05314EA090F4FF0460508BF222514EA0A0F4FF04604A6F8D05308BF2224A6F8A6
:204D2000C0430133E1E730370EF1010EBDE700BF92020020074908684A68801AD1F8F02CF7
:204D4000520106D50A68121A102A02DB096808440130704714E000E070B5002341F2210259
:204D60000C0404BF98B270BD0478013983EA04230024072C07D81EB2FEF764FBC8BF5D0061
:204D80002B460134F5E70130EAE70000F0B587B000270D18B5F1016F0697029707D916A184
:204DA00000202A46FEF700FE4FF0FF341FE00C460646FDF743F90F48F32101603046FFF7F9
:204DC000CBFC0646681EFFF7C7FC801B02210396019701300591C0B2049001A806A9FDF779
:204DE0009BF8002818BF6FF00104FDF7DDF8204607B0F0BD0C3C02404552524F523A206557
:204E000072617365206F757472616E676520666C6173682073697A652120616464722069F4
:204E200073202830782570290A00000070B5644EEFF3108472B6002500200021ADB9FFF710
:204E400079FF0146D6E90802401842EBE171D6E90A23821A71EB0302ACBFC6E90A01D6E926
:204E60000A0184F31088043DE8E770BDF8B5124B124CEFF3108172B600224FF000756FF0A3
:204E80007F4C0727002656B920B91A60C3F804C09A601F602560043E81F31088F3E700F0FC
:204EA0006BF847480021C0E9081181600161BDE8F840FFF7EABE00BF10E000E004ED00E0FF
:204EC000FDF7BAF9FEF716FFFEF756F9FEF72AF9FEF7DEF9FEF7A6F9FBF790FC03A1002023
:204EE000FEF762FDFBF7C0FCFCE700BF696E6974206F7665720A0A0070B5064614460D464C
:204F00000BA100203246FEF74FFDA219B2F1016F07D90CA10020FEF747FD4FF0FF34204680
:204F200070BD00208442FAD0815D29540130F9E77265616420616464723A203078252E3844
:204F4000780D0A004552524F523A2072656164206F757472616E676520666C6173682073FC
:204F6000697A65212061646472206973202830782570290A00000000B0B50E480E490F4AEE
:204F80000068B0FBF1F151604FF47A71B0FBF1F01060EFF3108472B6FFF748FF084DC5E963
:204FA0000601FFF743FFD5E90612401A286084F31088B0BD1800002040420F001000002085
:204FC000600200202DE9F8431718B7F1016F05D918A100203A46FEF7E7FC1DE09046DAB14A
:204FE0000D4606464FEA8809FDF728F8043F00244C4519D2BE4217D855F824200220314638
:205000000023FCF7D9FF50B955F824003168814208D101340436EBE74FF0FF3806E06FF0F7
:20502000010801E04FF0FF38FCF7BEFF4046BDE8F88300BF4552524F523A207772697465EC
:20504000206F757472616E676520666C6173682073697A6521206164647220697320283072
:20506000782570290A000000FF20FEF76DB90000B0B5574C65780DB1002001E04FF47F4010
:20508000FEF7EBF9A0680130A060C00704BF85F001006070B0BD00BF4FF47F40FEF754B9FE
:2050A000B0B54B4C25780DB1002001E04FF47F00FEF7D3F9606801306060C00704BF85F05D
:2050C00001002070B0BD00BF4FF47F00FEF73CB92DE9F0418CB03B48192100273A4E3B4DF0
:2050E00001700097306840F002003060306800F00200009000980097306940F002003061A9
:20510000306900F002000090009802200B90CDE90970CDE9070005F5003007A9FCF7A2FFC5
:205120002B4C802044F80C5FA0616820C4E90177C4E903072046FDF730FC602069460C2269
:20514000CDE90577CDE90377CDE9017700902046FDF7DEFB20681F4D1F4A4FF4807C4FF41D
:2051600080634FF4005E4FF40068C16841F48051C16000974FF02061306840F400103060ED
:205180004020C5E90877C5E90021C5F81CC0C5E9020705F1100080E80841306800F4001010
:2051A000009000982846FCF703FE0C4A20460C214FF484632563AC63FDF740FC0CB0BDE82A
:2051C000F08100BF9002002030380240000400406401002050300020406002409202002044
:2051E000064801684A1C0260C807C1F382024FF47F4008BF4FF47F00FEF7E6B82432002095
:20520000064801684A1C02608807C1F3C2024FF47F4058BF4FF47F00FEF7D6B82832002030
:20522000074801684A1C0260072020EAD10288074FF47F4058BF4FF47F00FEF7C5B800BF4F
:205240002C320020074801684A1C0260072020EA9102C8074FF47F4008BF4FF47F00FEF73D
:20526000B3B800BF303200200020FEF76DB84FF47F40FEF769B800000548012301684A1CF0
:20528000026001F007020020FF21FFF7FFBC00BF343200200548012301684A1C0260C1F326
:2052A0004202FF200021FFF7F1BC00BF383200200548012301684A1C0260072020EA510258
:2052C000FF200021FFF7E2BC3C3200200548012301684A1C0260072020EA01020020FF2156
:2052E000FFF7D4BC403200200548012301684A1C02600448C1F342020021FFF7C7BC00BF57
:205300004432002000FF7700192822D8DFE800F0110D0F131517191B1D1F212224262121E4
:2053200021212121210D0F282A2CFFF7CDBEFFF79EBFFFF799BFFFF7D7BFFFF7B1BEFFF725
:20534000A9BFFFF7B5BFFFF797BFFFF7BFBFFFF757BF7047FFF764BFFFF742BFFFF772BFC1
:20536000FFF782BEFFF784BEFFF796BE10B500290AD00878002807D005487844FBF7F8F942
:20538000002801D0002010BD0248784410BD00006A02000062020000F1EE100A4FF6FF71D6
:2053A000C0F2C03120EA010040F04070E1EE100A70470000000000000000010203040607A8
:2053C0000809000000000102030430313233343536373839414243444546617070005B6410
:2053E00062675D68656164207265630A0025733A2072656164206572726F722028256429BF
:205400002E0D0A0025733A206E6F7420666F756E642E0D0A0025733A206E6F7420666F75D6
:205420006E6420257320706172742E0D0A00636F6E6669673A2025642025642025642025D6
:20544000640D0A0066775F6F6C645F7665723A205625642E25642E25642E25640D0A0066CF
:20546000775F6E65775F7665723A205625642E25642E25642E25640D0A00706B675F73696E
:205480007A653A20256420627974650D0A007261775F73697A653A20256420627974650D37
:2054A0000A006E616D653A2025730D0A00757365725F737472696E673A2025730D0A002555
:2054C000733A206E6F206465637279707420636F6D706F6E656E740D0A0025733A20257373
:2054E00020706172740D0A00464D5F53746F726167654669726D7761726548656164004602
:205500004D5F57726974654669726D776172655375625061636B61676500464D5F5772699D
:2055200074654669726D77617265446F6E6500464D5F5665726966794669726D776172652B
:2055400000464D5F4973456D707479005465726D696E616C00284E554C4C2900596D6F642D
:20556000656D2072656376206C656E3A2025642028252E3258290D0A006572726F723A205E
:2055800063726331363A20252E34580D0A006572726F723A20666C6F7720696C6C65676152
:2055A0006C0D0A002D2D2D2D2D2D2D2D2D2D2D2D2D2D2D2D2D2D2D2D2D2D2D2D2D2D2D2D7C
:2055C0002D0D0A00005700080800002090000000C40100089057000898000020B037000015
:2055E000E00100081001000043000000F8FFFFFF00404040404040404040414141414140B4
:20560000404040404040404040404040404040404005020202020202020202020202020229
:2056200002202020202020202020200202020202020290909090909010101010101010103A
:2056400010101010101010101010101002020202020288888888888808080808080808080E
:20566000080808080808080808080808020202024000000000000000000000000000000082
:2056800000000000000000000000000000000000000000000000000000000000000000000A
:2056A0000000000000000000000000000000000000000000000000000000000000000000EA
:2056C0000000000000000000000000000000000000000000000000000000000000000000CA
:2056E0000000000000000000000000000000000000000000EDF3FFFF8DF5FFFF000000004C
:20570000010000001000000001000000010000000024F4004300000000000000000000001B
:20572000000000000000000000000000000000000000000000000000000000000000000069
:20574000000000000000000000000000000000000000000000000000000000000000000049
:20576000020000000000000000000000000000000000000010300020400000000000000087
:1057800000000000000000002000002000000000D9
:00000001FF
